H120230220COMPANY CODE                            COMPANY NAME                                                                                                                                                                                                                                                                  
E1423068956                  Cogburn          StacyF           000119870511        A                                                                                     1987051184                                                                                                                                             
E2423068956          3407 SURREYHILL LANE                                        BIRMINGHAMAL35243                  Executive Assistant to COBHF0000015004000BNN                                                                                                                                                                
P1423068956 630798460          STATEAL           00012022071500000116520000000539200000000000000000000000000000000000000000000000000000000000000000000000000000000000000000000000000000000000000000000000000000000000000000000000000000000000000              Executive Assistant to COBH000001500                              
E1081603491                   Connor         LeslieB           000119961207        A                                                                                     19961207108                                                                                                                                            
E2081603491             1145 NE 11 AVENUE                                     FT LAUDERDALEFL33304                        D23 District ManagerSF0050000004000BYN                                                                                                                                                                
P1081603491 630798460          STATEAL           00012022080500000258154000001822730000025815400000000000000000000000000000000000000000000000000000000008000000000258154000000258154000000000000000000000000000000000000000000000000000000000000                    D23 District ManagerS005000000                              
E1377726779                   Devowe           Tina            000120030427        A                                                                                     20160113159                                                                                                                                            
E2377726779             1226 5th Avenue N                                         NashvilleTN37208                        D13 District ManagerSF0050000004000BYN                                                                                                                                                                
P1377726779 630798460          STATEAL           00012022080500000253805000001964250000025380500000000000000000000000000000000000000000000000000000000008000000000253805000000253805000000000000000000000000000000000000000000000000000000000000                    D13 District ManagerS005000000                              
E1030528221                   Zoldak          BruceS           000120050803        A                                                                                     20050803261                                                                                                                                            
E2030528221          1812 COUNTY ROAD 126                                          WATERLOOAL35677                      Equipment Service LeadHF0000015004000BYN                                                                                                                                                                
P1030528221 630798460          STATEAL           00012022080500000154120000001102940000015412000000000000000000000000000000000000000000000000000000000008000000000154120000000154120000000000000000000000000000000000000000000000000000000000000                  Equipment Service LeadH000001500                              
E1422888415                    Adams        StephenG           000119950911        A                                                                                     19950911324                                                                                                                                            
E2422888415           7190 BRANDON CIRCLE                                            PINSONAL35126               iSeries Operations SupervisorSF0050000004000BYN                                                                                                                                                                
P1422888415 630798460          STATEAL           00012022080500000231427000001544400000023142700000000000000000000000000000000000000000000000000000000008000000000231427000000231427000000000000000000000000000000000000000000000000000000000000           iSeries Operations SupervisorS005000000                              
E1424824236                    Roden        DewayneM           000120001030        A                                                                                     20001030337                                                                                                                                            
E2424824236           229 GLENWOOD AVENUE                                      RUSSELLVILLEAL35654              Corprate Applications DirectorSF0050000004000BYN                                                                                                                                                                
P1424824236 630798460          STATEAL           00012022080500000354701000002502200000035470100000000000000000000000000000000000000000000000000000000008000000000354701000000354701000000000000000000000000000000000000000000000000000000000000          Corprate Applications DirectorS005000000                              
E1428191609                  Johnson       VenesterM           000119931018        A                                                                                     19931018343                                                                                                                                            
E2428191609                                                                                                           Sr. Help Desk TechnicianSF0050000004000BYN                                                                                                                                                                
P1428191609 630798460          STATEAL           00012022080500000227169000001710990000022716900000000000000000000000000000000000000000000000000000000008000000000227169000000227169000000000000000000000000000000000000000000000000000000000000                Sr. Help Desk TechnicianS005000000                              
E1164566815                    Blake           ErinM           000119821106        A                                                                                     19821106367                                                                                                                                            
E2164566815       3550 GRANDVIEW PKW 1018                                        BIRMINGHAMAL35243                      Mercury Cood/Plan/DistSF0050000004000BYN                                                                                                                                                                
P1164566815 630798460          STATEAL           00012022080500000241283000001462780000024128300000000000000000000000000000000000000000000000000000000008000000000241283000000241283000000000000000000000000000000000000000000000000000000000000                  Mercury Cood/Plan/DistS005000000                              
E1253392268                 Rupp Jr.        RichardO           000120050329        A                                                                                     20161101379                                                                                                                                            
E2253392268           2019 Fairhaven Lane                                      MurfreesboroTN37128                   VP Used Sales & InventorySF0050000004000BYN                                                                                                                                                                
P1253392268 814335486          STATEAL           00012022080500000412986000003225520000041298600000000000000000000000000000000000000000000000000000000008000000000412986000000412986000000000000000000000000000000000000000000000000000000000000               VP Used Sales & InventoryS005000000                              
E1410374997              Crutchfield           ErinB           000120050503        A                                                                                     20050503393                                                                                                                                            
E2410374997         8026 ROCK HAMPTON CIR                                            HELENAAL35080                            Category 2 BuyerSF0050000004000BYN                                                                                                                                                                
P1410374997 630798460          STATEAL           00012022080500000211460000001525180000021146000000000000000000000000000000000000000000000000000000000008000000000211460000000211460000000000000000000000000000000000000000000000000000000000000                        Category 2 BuyerS005000000                              
E1424748061                   Finley       TerranceG           000119850901        A                                                                                     19850901440                                                                                                                                            
E2424748061               11 BONITA DRIVE                                          HOMEWOODAL35209              Pres & Chief Executive OfficerSF0050000004000BYN                                                                                                                                                                
P1424748061 630798460          STATEAL           00012022080500001031188000007982140000103118800000000000000000000000000000000000000000000000000000000008000000001031188000001031188000000000000000000000000000000000000000000000000000000000000          Pres & Chief Executive OfficerS005000000                              
E1149623666                   Bethea         SaritaL           000119941212        A                                                                                     19941212708                                                                                                                                            
E2149623666             6340 WALNUT DRIVE                                            PinsonAL35126                Director of Accounts PayableSF0050000004000BYN                                                                                                                                                                
P1149623666 630798460          STATEAL           00012022080500000357442000001716340000035744200000000000000000000000000000000000000000000000000000000008000000000357442000000357442000000000000000000000000000000000000000000000000000000000000            Director of Accounts PayableS005000000                              
E1151620003                  Johnson         DebbieA           000120010129        A                                                                                     20010129709                                                                                                                                            
E2151620003            401 14TH STREET SW                                        BIRMINGHAMAL35211                              Vendor AnalystHF0000015004000BNN                                                                                                                                                                
P1151620003 630798460          STATEAL           00012022071500000095445000000681180000007272000000013635000000000000000000000000000000000000000090900005000000000072720000000095445000000013635000000000000000000000000000000000000000000009090                          Vendor AnalystH000001500                              
E1266751629                   McCray         SharonD           000119981019        A                                                                                     19981019723                                                                                                                                            
E2266751629             2025 9TH PLACE NW                                        BIRMINGHAMAL35215                              Vendor AnalystHF0000015004000BNN                                                                                                                                                                
P1266751629 630798460          STATEAL           00012022071500000072315000000449830000007231500000000000000000000000000000000000000000000000000000000004500000000072315000000072315000000000000000000000000000000000000000000000000000000000000                          Vendor AnalystH000001500                              
E1418626680                   Krantz           SaraA           000120060109        A                                                                                     20060109773                                                                                                                                            
E2418626680              3901 ASBURY ROAD                                        BIRMINGHAMAL35243                     FINANCE ADMIN ASSISTANTHF0000015004000BNN                                                                                                                                                                
P1418626680 630798460          STATEAL           00012022080500000135480000000952220000013548000000000000000000000000000000000000000000000000000000000008000000000135480000000135480000000000000000000000000000000000000000000000000000000000000                 FINANCE ADMIN ASSISTANTH000001500                              
E1419907891                     Ford      CatherineD           000119920513        A                                                                                     19920513786                                                                                                                                            
E2419907891             104 MAHONE AVENUE                                          HUEYTOWNAL35023                           AP Vendor ManagerSF0050000004000BNN                                                                                                                                                                
P1419907891 630798460          STATEAL           00012022080500000261062000001669360000026106200000000000000000000000000000000000000000000000000000000008000000000261062000000261062000000000000000000000000000000000000000000000000000000000000                       AP Vendor ManagerS005000000                              
E1424040462                    Green        RodesiaC           000119961209        A                                                                                     19961209825                                                                                                                                            
E2424040462        316 SOUTH PARK ROAD SW                                        BIRMINGHAMAL35211                 Accounts Payable SupervisorHF0000015004000BYN                                                                                                                                                                
P1424040462 630798460          STATEAL           00012022080500000140400000000664660000014040000000000000000000000000000000000000000000000000000000000008000000000140400000000140400000000000000000000000000000000000000000000000000000000000000             Accounts Payable SupervisorH000001500                              
E1587464096                   Horton         Dennis            000119971201        A                                                                                     20030406853                                                                                                                                            
E2587464096      5152 VALLEY BROOK CIRCLE                                        BIRMINGHAMAL35244                  Financial Analysis ManagerSF0050000004000BYN                                                                                                                                                                
P1587464096 630798460          STATEAL           00012022080500000270649000001095480000027064900000000000000000000000000000000000000000000000000000000008000000000270649000000270649000000000000000000000000000000000000000000000000000000000000              Financial Analysis ManagerS005000000                              
E1589503991                 Williams          DavidP           000120060306        A                                                                                     20060306855                                                                                                                                            
E2589503991                109 REID DRIVE                                        TRUSSVILLEAL35173                           Inventory ManagerSF0050000004000BYN                                                                                                                                                                
P1589503991 630798460          STATEAL           00012022080500000232056000001341860000023205600000000000000000000000000000000000000000000000000000000008000000000232056000000232056000000000000000000000000000000000000000000000000000000000000                       Inventory ManagerS005000000                              
E1416211374                 Lawrence         JosephD           000120031208        A                                                                                     20031208899                                                                                                                                            
E2416211374    11990 MAGNOLIA SPRINGS HWY                                  MAGNOLIA SPRINGSAL36555                       Regional InvestigatorSF0050000004000BYN                                                                                                                                                                
P1416211374 630798460          STATEAL           00012022080500000241606000001519880000024160600000000000000000000000000000000000000000000000000000000008000000000241606000000241606000000000000000000000000000000000000000000000000000000000000                   Regional InvestigatorS005000000                              
E1421234312                    Aaron          DavidB           000120021003        A                                                                                     20021003904                                                                                                                                            
E2421234312       9770 CORNER SCHOOL ROAD                                           WARRIORAL35180                   LP Mgr of Fraud AnalyticsSF0050000004000BYN                                                                                                                                                                
P1421234312 630798460          STATEAL           00012022080500000226102000001771030000022610200000000000000000000000000000000000000000000000000000000008000000000226102000000226102000000000000000000000000000000000000000000000000000000000000               LP Mgr of Fraud AnalyticsS005000000                              
E1423882713                   Stoves       LawrenceC           000120040211        A                                                                                     20040211906                                                                                                                                            
E2423882713            216 WESTWOOD DRIVE                                          BESSEMERAL35022                 Director of Loss PreventionSF0050000000000BYN                                                                                                                                                                
P1423882713 630798460          STATEAL           00012022080500000298192000002122600000029819200000000000000000000000000000000000000000000000000000000008000000000298192000000298192000000000000000000000000000000000000000000000000000000000000             Director of Loss PreventionS005000000                              
E1250439555                    Hayes           JohnM           012420050126        A                                                                                     200501263029                                                                                                                                           
E2250439555            103 WOODROW STREET                                            BELTONSC29627                             General ManagerSF0050000004000BYN                                                                                                                                                                
P1250439555 630798460          STATESC           01242022080500000184856000001052210000018485600000000000000000000000000000000000000000000000000000000008000000000184856000000184856000000000000000000000000000000000000000000000000000000000000                         General ManagerS005000000                              
E1240475440                   Bowman         DanielM           013920210607        A                                                                                     202106074238                                                                                                                                           
E2240475440               2976 NORWOOD LN                                          ASHEBORONC27205                             General ManagerSF0050000004000BYN                                                                                                                                                                
P1240475440 630798460          STATENC           01392022080500000172842000001550200000017284200000000000000000000000000000000000000000000000000000000008000000000172842000000172842000000000000000000000000000000000000000000000000000000000000                         General ManagerS005000000                              
E1590347648                 Barfield          DavidE           038720001226        A                                                                                     2017082310894                                                                                                                                          
E2590347648                  P.O. Box 816                                      Lehigh AcresFL33970                                  BookSellerHP0000015002000BNN                                                                                                                                                                
P1590347648 630798460          STATEFL           03872022071500000010000000000064700000000000000000000000000000100000000000000000000000000000000000000000000000000000000000000010000000000000000000000010000000000000000000000000000000000000000                              BookSellerH000001500                              
E1416198605                  Lindsey           AlanC           021620050325        A                                                                                     2005032511057                                                                                                                                          
E2416198605        5855 WALNUT GROVE ROAD                                        BIRMINGHAMAL35215                                  BookSellerHP0000015002000BNN                                                                                                                                                                
P1416198605 630798460          STATEAL           02162022071500000034520000000280510000003452000000000000000000000000000000000000000000000000000000000004000000000034520000000034520000000000000000000000000000000000000000000000000000000000000                              BookSellerH000001500                              
E1416828571                  Freeman           TaraL           021620000815        A                                                                                     2000081511073                                                                                                                                          
E2416828571            9848 REDCLIFF ROAD                                        BIRMINGHAMAL35215                             General ManagerSF0050000004000BYN                                                                                                                                                                
P1416828571 630798460          STATEAL           02162022080500000185769000001477450000018576900000000000000000000000000000000000000000000000000000000008000000000185769000000185769000000000000000000000000000000000000000000000000000000000000                         General ManagerS005000000                              
E1418906152                  Huckaby           MaryE           000120030420        A                                                                                     2003042011113                                                                                                                                          
E2418906152                2409 CARMEL RD                                        BIRMINGHAMAL35235                              Vendor AnalystHF0000015004000BNN                                                                                                                                                                
P1418906152 630798460          STATEAL           00012022071500000071120000000356600000007112000000000000000000000000000000000000000000000000000000000004000000000071120000000071120000000000000000000000000000000000000000000000000000000000000                          Vendor AnalystH000001500                              
E1418132039                    Brady           AbbyL           000120050620        A                                                                                     2005062011337                                                                                                                                          
E2418132039               3987 NATCHEZ DR                                        BIRMINGHAMAL35243                            Category 2 BuyerSF0050000004000BYN                                                                                                                                                                
P1418132039 630798460          STATEAL           00012022080500000200562000001014850000020056200000000000000000000000000000000000000000000000000000000008000000000200562000000200562000000000000000000000000000000000000000000000000000000000000                        Category 2 BuyerS005000000                              
E1368746498                  Hawkins          CarlaJ           000119961112        A                                                                                     1996111213812                                                                                                                                          
E2368746498          122 OYSTER POINT ROW                                        CHARLESTONSC29412                        D21 District ManagerSF0050000004000BYN                                                                                                                                                                
P1368746498 630798460          STATEAL           00012022080500000277106000001781100000027710600000000000000000000000000000000000000000000000000000000008000000000277106000000277106000000000000000000000000000000000000000000000000000000000000                    D21 District ManagerS005000000                              
E1236294002                   Cuervo         DanielS           024020060530        A                                                                                     2012082014680                                                                                                                                          
E2236294002                29 Bens Branch                                        Alum CreekWV25003                             General ManagerSF0050000004000BYN                                                                                                                                                                
P1236294002 630798460          STATEWV           02402022080500000182039000001481900000018203900000000000000000000000000000000000000000000000000000000008000000000182039000000182039000000000000000000000000000000000000000000000000000000000000                         General ManagerS005000000                              
E1413535726                   Bryant          AutryR           066320060521        A                                                                                     2006052116445                                                                                                                                          
E2413535726                325 RUDOLPH ST                                       SPRINGFIELDTN37172                             General ManagerSF0050000004000BYN                                                                                                                                                                
P1413535726 630798460          STATETN           06632022080500000178044000001532950000017804400000000000000000000000000000000000000000000000000000000008000000000178044000000178044000000000000000000000000000000000000000000000000000000000000                         General ManagerS005000000                              
E1435633550                    Felts    ChristopherP           075020050510        A                                                                                     2005051023022                                                                                                                                          
E2435633550               513 BOYD CIRCLE                                         NICEVILLEFL32578                             General ManagerSF0050000004000BYN                                                                                                                                                                
P1435633550 630798460          STATEFL           07502022080500000193836000001509510000019383600000000000000000000000000000000000000000000000000000000008000000000193836000000193836000000000000000000000000000000000000000000000000000000000000                         General ManagerS005000000                              
E1424151939                   Carter         LesleyL           032819980804        A                                                                                     1998080428994                                                                                                                                          
E2424151939     3155 FRENCH ROAD APT. 168                                          BEAUMONTTX77706                             General ManagerSF0050000004000BNN                                                                                                                                                                
P1424151939 630798460          STATEFL           03282022080500000189718000001614170000018971800000000000000000000000000000000000000000000000000000000008000000000189718000000189718000000000000000000000000000000000000000000000000000000000000                         General ManagerS005000000                              
E1434512308                   Lanier        KennethB           042320020913        A                                                                                     2009082730177                                                                                                                                          
E2434512308   4020 GOURRIER AVENUE, APT 1                                       BATON ROUGELA70808                             General ManagerSF0050000004000BYN                                                                                                                                                                
P1434512308 630798460          STATELA           04232022080500000170019000001415230000017001900000000000000000000000000000000000000000000000000000000008000000000170019000000170019000000000000000000000000000000000000000000000000000000000000                         General ManagerS005000000                              
E1122624583                    Jewel         RobertC           000119951226        A                                                                                     2004071131089                                                                                                                                          
E2122624583                                                                                                           D50 District Manager 2nCSF0050000004000BYN                                                                                                                                                                
P1122624583 814335486          STATEAL           00012022080500000250000000001980430000025000000000000000000000000000000000000000000000000000000000000008000000000250000000000250000000000000000000000000000000000000000000000000000000000000000                D50 District Manager 2nCS005000000                              
E1424333407                  Boucher      ElizabethG           047120030707        A                                                                                     2003070733434                                                                                                                                          
E2424333407        620 JULIA STREET APT D                                        HUNTSVILLEAL35816                             General ManagerSF0050000004000BYN                                                                                                                                                                
P1424333407 630798460          STATETN           04712022080500000194799000001334310000019479900000000000000000000000000000000000000000000000000000000008000000000194799000000194799000000000000000000000000000000000000000000000000000000000000                         General ManagerS005000000                              
E1409291472                 O'Connor         SandraK           048719900823        A                                                                                     1990082335960                                                                                                                                          
E2409291472            385 OLDFIELD DRIVE                                       ORANGE PARKFL32003                             General ManagerSF0050000004000BYN                                                                                                                                                                
P1409291472 630798460          STATEFL           04872022080500000199149000001415870000019914900000000000000000000000000000000000000000000000000000000008000000000199149000000199149000000000000000000000000000000000000000000000000000000000000                         General ManagerS005000000                              
E1429495247                    Heral        WilliamE           039020040125        A                                                                                     2004012539300                                                                                                                                          
E2429495247                                                                                                                    General ManagerSF0050000004000BYN                                                                                                                                                                
P1429495247 630798460          STATEAR           03902022080500000185500000001160300000018550000000000000000000000000000000000000000000000000000000000008000000000185500000000185500000000000000000000000000000000000000000000000000000000000000                         General ManagerS005000000                              
E1465812856                   Rogers           KeriA           041319991017        A                                                                                     1999101744496                                                                                                                                          
E2465812856                                                                                                                    General ManagerSF0050000004000BYN                                                                                                                                                                
P1465812856 630798460          STATETX           04132022080500000177903000001378410000017790300000000000000000000000000000000000000000000000000000000008000000000177903000000177903000000000000000000000000000000000000000000000000000000000000                         General ManagerS005000000                              
E1414398862                  Johnson          DianaF           065420020203        A                                                                                     2002020350864                                                                                                                                          
E2414398862        2521 GOLD VALLEY DRIVE                                      MURFREESBOROTN37130                             General ManagerSF0050000004000BYN                                                                                                                                                                
P1414398862 630798460          STATETN           06542022080500000195683000001149210000019568300000000000000000000000000000000000000000000000000000000008000000000195683000000195683000000000000000000000000000000000000000000000000000000000000                         General ManagerS005000000                              
E1432516421             Maddux-Jones       VirginiaL           213420010930        A                                                                                     2001093052375                                                                                                                                          
E2432516421       3815 andrew jackson way                                         hermitageTN37076                             General ManagerSF0050000004000BYN                                                                                                                                                                
P1432516421 814335486          STATEAL           21342022080500000190673000001455770000019067300000000000000000000000000000000000000000000000000000000008000000000190673000000190673000000000000000000000000000000000000000000000000000000000000                         General ManagerS005000000                              
E1525672672                    Sloan      Stephanie            076720060508        A                                                                                     2007041653740                                                                                                                                          
E2525672672             917 WEST OUTER DR                                         OAK RIDGETN37830                             General ManagerSF0050000004000BYN                                                                                                                                                                
P1525672672 630798460          STATETN           07672022080500000195767000001422070000019576700000000000000000000000000000000000000000000000000000000008000000000195767000000195767000000000000000000000000000000000000000000000000000000000000                         General ManagerS005000000                              
E1142767783               Van Gorden          DebraA           078120020609        A                                                                                     2002060960018                                                                                                                                          
E2142767783              11438 ROHRMAN RD                                       PORT RICHEYFL34668                             General ManagerSF0050000004000BYN                                                                                                                                                                
P1142767783 630798460          STATEFL           07812022080500000195997000001451020000019599700000000000000000000000000000000000000000000000000000000008000000000195997000000195997000000000000000000000000000000000000000000000000000000000000                         General ManagerS005000000                              
E1226453661                     Cary        Timothy            078820040829        A                                                                                     2004082962127                                                                                                                                          
E2226453661      5303 GREATBRIDGE TERRACE                                          RICHMONDVA23237                             General ManagerSF0050000004000BYN                                                                                                                                                                
P1226453661 630798460          STATEVA           07882022080500000166274000001350560000016627400000000000000000000000000000000000000000000000000000000008000000000166274000000166274000000000000000000000000000000000000000000000000000000000000                         General ManagerS005000000                              
E1254592203                    Brown    Christopher            094420060719        A                                                                                     2006071964556                                                                                                                                          
E2254592203             397 GREEN OAKS CT                                            MIDWAYGA31320                             General ManagerSF0050000004000BYN                                                                                                                                                                
P1254592203 630798460          STATEGA           09442022080500000195794000001436550000019579400000000000000000000000000000000000000000000000000000000008000000000195794000000195794000000000000000000000000000000000000000000000000000000000000                         General ManagerS005000000                              
E1463752572                    Glatt          KennyL           000119980302        A                                                                                     1998030265107                                                                                                                                          
E2463752572            307 BLACKMON TRAIL                                             BELLSTX75414                Construction Project ManagerSF0050000004000BYN                                                                                                                                                                
P1463752572 630798460          STATEAL           00012022080500000208900000001460040000020890000000000000000000000000000000000000000000000000000000000008000000000208900000000208900000000000000000000000000000000000000000000000000000000000000            Construction Project ManagerS005000000                              
E1587378939                   Knight          HollyA           063120041024        A                                                                                     2013072365114                                                                                                                                          
E2587378939              1612 N 10TH AVE.                                            DURANTOK74701                             General ManagerSF0050000004000BYN                                                                                                                                                                
P1587378939 630798460          STATELA           06312022080500000193699000001282300000019369900000000000000000000000000000000000000000000000000000000008000000000193699000000193699000000000000000000000000000000000000000000000000000000000000                         General ManagerS005000000                              
E1593228052                 Lugabihl         RobertA           022420050117        A                                                                                     2005011765219                                                                                                                                          
E2593228052            1132 S. TERRY AVE.                                          LAKELANDFL33815                             General ManagerSF0050000004000BYN                                                                                                                                                                
P1593228052 630798460          STATEFL           02242022080500000193745000000998550000019374500000000000000000000000000000000000000000000000000000000008000000000193745000000193745000000000000000000000000000000000000000000000000000000000000                         General ManagerS005000000                              
E1555676734                  Norrell          James            075620051113        A                                                                                     2005111368027                                                                                                                                          
E2555676734                                                                                                                    General ManagerSF0050000004000BYN                                                                                                                                                                
P1555676734 630798460          STATEFL           07562022080500000187964000001225590000018796400000000000000000000000000000000000000000000000000000000008000000000187964000000187964000000000000000000000000000000000000000000000000000000000000                         General ManagerS005000000                              
E1311886608            McNeill Maher          Megan            087520031014        A                                                                                     2003101468393                                                                                                                                          
E2311886608               2701 N. 13TH ST                                       TERRE HUATEIN47804                             General ManagerSF0050000004000BYN                                                                                                                                                                
P1311886608 630798460          STATEIN           08752022080500000186517000001127150000018651700000000000000000000000000000000000000000000000000000000008000000000186517000000186517000000000000000000000000000000000000000000000000000000000000                         General ManagerS005000000                              
E1411064914                    Dison          PattiL           000219921130        A                                                                                     1992113074874                                                                                                                                          
E2411064914               109 WADE STREET                                         ST JOSEPHTN38481                                Director OpsSF0050000004000BNN                                                                                                                                                                
P1411064914 842514278          STATEAL           00022022080500000266330000001892570000026633000000000000000000000000000000000000000000000000000000000008000000000266330000000266330000000000000000000000000000000000000000000000000000000000000                            Director OpsS005000000                              
E1214524571                 Brockett        RichardG           000119960122        A                                                                                     2018020878082                                                                                                                                          
E2214524571         10903 STILLWATER AVE.                                        KENSIGNTONMD20895                   Used Sourcing CoordinatorSF0050000004000BYN                                                                                                                                                                
P1214524571 814335486          STATEAL           00012022080500000249956000001823770000024995600000000000000000000000000000000000000000000000000000000008000000000249956000000249956000000000000000000000000000000000000000000000000000000000000               Used Sourcing CoordinatorS005000000                              
E1419179103                  Datcher          AnnieP           000120000927        A                                                                                     2000092778146                                                                                                                                          
E2419179103         800 NORTH CREST DRIVE                                        BIRMINGHAMAL35235              Operations and HR AdministratoSF0050000004000BYN                                                                                                                                                                
P1419179103 630798460          STATEAL           00012022080500000217577000001562460000021757700000000000000000000000000000000000000000000000000000000008000000000217577000000217577000000000000000000000000000000000000000000000000000000000000          Operations and HR AdministratoS005000000                              
E1420943083                  Hayward          SusanW           000119971117        A                                                                                     1997111778159                                                                                                                                          
E2420943083         4314 6TH AVENUE SOUTH                                        BIRMINGHAMAL35222                 Merchandise Control ManagerSF0050000004000BYN                                                                                                                                                                
P1420943083 630798460          STATEAL           00012022080500000230490000001391020000023049000000000000000000000000000000000000000000000000000000000008000000000230490000000230490000000000000000000000000000000000000000000000000000000000000             Merchandise Control ManagerS005000000                              
E1421869422                  Mozingo            KimG           000119970509        A                                                                                     1997050978167                                                                                                                                          
E2421869422              32 MALLARD DRIVE                                          CROPWELLAL35054             Sr VP Director Merch OperationsSF0050000004000BYN                                                                                                                                                                
P1421869422 630798460          STATEAL           00012022080500000424038000002607970000042403800000000000000000000000000000000000000000000000000000000008000000000424038000000424038000000000000000000000000000000000000000000000000000000000000         Sr VP Director Merch OperationsS005000000                              
E1424921851                    White         SherryM           000119970805        A                                                                                     1997080578184                                                                                                                                          
E2424921851             1535 TIMBER DRIVE                                            HELENAAL35080                      VP/DIV MERCH MGR BOOKSSF0050000004000BYN                                                                                                                                                                
P1424921851 630798460          STATEAL           00012022080500000338494000002240580000033849400000000000000000000000000000000000000000000000000000000008000000000338494000000338494000000000000000000000000000000000000000000000000000000000000                  VP/DIV MERCH MGR BOOKSS005000000                              
E1591018940                      May       MichelleJ           000119981012        A                                                                                     1998101278200                                                                                                                                          
E2591018940               341 18th ave NE                                      Center PointAL35215                 COMPANY SUPPORT COORDINATORSF0050000004000BYN                                                                                                                                                                
P1591018940 630798460          STATEAL           00012022080500000195155000001297380000019515500000000000000000000000000000000000000000000000000000000008000000000195155000000195155000000000000000000000000000000000000000000000000000000000000             COMPANY SUPPORT COORDINATORS005000000                              
E1639053953                   Boothe        HeatherL           000119940610        A                                                                                     1994061078203                                                                                                                                          
E2639053953         2391 WINE RIDGE DRIVE                                        BIRMINGHAMAL35244                       VISUAL MERCH DIRECTORSF0050000004000BYN                                                                                                                                                                
P1639053953 630798460          STATEAL           00012022080500000240572000001577990000024057200000000000000000000000000000000000000000000000000000000008000000000240572000000240572000000000000000000000000000000000000000000000000000000000000                   VISUAL MERCH DIRECTORS005000000                              
E1419968429                      Day         DewanaR           000219851022        A                                                                                     1985102281773                                                                                                                                          
E2419968429            5210 COUNTY ROAD 7                                          FLORENCEAL35633                             MANAGER RETURNSSF0050000004000BYN                                                                                                                                                                
P1419968429 842514278          STATEAL           00022022080500000202129000001341640000020212900000000000000000000000000000000000000000000000000000000008000000000202129000000202129000000000000000000000000000000000000000000000000000000000000                         MANAGER RETURNSS005000000                              
E1571065455                  Rackard         Sondra            000219890826        A                                                                                     1989082682306                                                                                                                                          
E2571065455                                                                                                     Vice President Human ResourcesSF0050000004000BYN                                                                                                                                                                
P1571065455 842514278          STATEAL           00022022080500000348951000002288210000034895100000000000000000000000000000000000000000000000000000000008000000000348951000000348951000000000000000000000000000000000000000000000000000000000000          Vice President Human ResourcesS005000000                              
E1487964377                   Martin          JamieC           000220050328        A                                                                                     2014021083814                                                                                                                                          
E2487964377    1301 HERMITAGE DR APT 12 G                                          FLORENCEAL35630    MANAGER ENGINEERING,RESTOCK,AND NEXTPICKSF0050000004000BYN                                                                                                                                                                
P1487964377 842514278          STATEAL           00022022080500000194952000001307460000019495200000000000000000000000000000000000000000000000000000000008000000000194952000000194952000000000000000000000000000000000000000000000000000000000000MANAGER ENGINEERING,RESTOCK,AND NEXTPICKS005000000                              
E1306607734                   Turley           Myra            077720060726        A                                                                                     2006072684199                                                                                                                                          
E2306607734          2134 CAROETGREEN ST.                                    PORT CHARLOTTEFL33948                             General ManagerSF0050000004000BYN                                                                                                                                                                
P1306607734 630798460          STATEFL           07772022080500000192505000001402140000019250500000000000000000000000000000000000000000000000000000000008000000000192505000000192505000000000000000000000000000000000000000000000000000000000000                         General ManagerS005000000                              
E1418290204                  Doggett         DamianT           000120060821        A                                                                                     2006082184680                                                                                                                                          
E2418290204       2801 ST PATRICK PLACE N                                            HELENAAL35080                                  ControllerSF0050000004000BYN                                                                                                                                                                
P1418290204 630798460          STATEAL           00012022080500000428335000003094710000042833500000000000000000000000000000000000000000000000000000000008000000000428335000000428335000000000000000000000000000000000000000000000000000000000000                              ControllerS005000000                              
E1265352713                  Murrill         Edward            092220061231        A                                                                                     2006123187030                                                                                                                                          
E2265352713            1284 NANTUCKET RD.                                            VENICEFL34293                             General ManagerSF0050000004000BYN                                                                                                                                                                
P1265352713 630798460          STATEFL           09222022080500000178660000001467170000017866000000000000000000000000000000000000000000000000000000000008000000000178660000000178660000000000000000000000000000000000000000000000000000000000000                         General ManagerS005000000                              
E1610090791                   Benbow           TaraA           058420070227        A                                                                                     2022012187587                                                                                                                                          
E2610090791                                                                                                                            BaristaHP0000015002000BNN                                                                                                                                                                
P1610090791 630798460          STATETX           05842022082900000301000000002779730000024600000000000000000000000000000000000000000000000000000550000020000000000246000000000301000000000000000000000000000000000000000000000000000000000055000                                 BaristaH000001500                              
E1371621731                 Abramson         SandraB           038120070319        A                                                                                     2012081387750                                                                                                                                          
E2371621731          3621 TURTLE RUN BLVD                         #1014       CORAL SPRINGSFL33067                             General ManagerSF0050000004000BYN                                                                                                                                                                
P1371621731 630798460          STATEFL           03812022080500000197654000001662200000019765400000000000000000000000000000000000000000000000000000000008000000000197654000000197654000000000000000000000000000000000000000000000000000000000000                         General ManagerS005000000                              
E1017700091                Henderson        ChristaL           010820070502        A                                                                                     2007050288279                                                                                                                                          
E2017700091              1106 Dunsmore Dr                                           ChelseaAL35043                             General ManagerSF0050000004000BYN                                                                                                                                                                
P1017700091 630798460          STATEAL           01082022080500000187269000001249270000018726900000000000000000000000000000000000000000000000000000000008000000000187269000000187269000000000000000000000000000000000000000000000000000000000000                         General ManagerS005000000                              
E1428596852                   Brewer          EricaR           043120070608        A                                                                                     2014101588975                                                                                                                                          
E2428596852                1927 CHERRY ST                       APT 102            COLUMBUSMS39701                             General ManagerSF0050000004000BYN                                                                                                                                                                
P1428596852 630798460          STATEMS           04312022080500000195630000001406390000019563000000000000000000000000000000000000000000000000000000000008000000000195630000000195630000000000000000000000000000000000000000000000000000000000000                         General ManagerS005000000                              
E1089669444                Haberecht        Michael            00012007081920220728T                                                                                     2007081990287                                                                                                                                          
E2089669444      723 Lake Heather Reserve                                            HooverAL35242                   Communications SupervisorSF0050000004000BNN                                                                                                                                                                
P1089669444 630798460          STATEAL           00012022080500000199154000001183850000019915400000000000000000000000000000000000000000000000000000000008000000000199154000000199154000000000000000000000000000000000000000000000000000000000000               Communications SupervisorS005000000                              
E1589173434                   Phares       JenniferA           048620070910        A                                                                                     2007091090722                                                                                                                                          
E2589173434           3635 PALEFACE PLACE                                      JACKSONVILLEFL32210                             General ManagerSF0050000004000BYN                                                                                                                                                                
P1589173434 630798460          STATEFL           04862022080500000179178000001421650000017917800000000000000000000000000000000000000000000000000000000008000000000179178000000179178000000000000000000000000000000000000000000000000000000000000                         General ManagerS005000000                              
E1253571976                     Long          Craig            000120071021        A                                                                                     2007102191543                                                                                                                                          
E2253571976             721 7TH STREET SW                                        BIRMINGHAMAL35073                         Planner/DistributorSF0050000004000BYN                                                                                                                                                                
P1253571976 630798460          STATEAL           00012022080500000231306000001575270000023130600000000000000000000000000000000000000000000000000000000008000000000231306000000231306000000000000000000000000000000000000000000000000000000000000                     Planner/DistributorS005000000                              
E1589344778                   Haynes        Catrina            000120080127        A                                                                                     20080127100593                                                                                                                                         
E2589344778          704 ROLLINGWOOD LANE                                           VALRICOFL33594                        D22 District ManagerSF0050000004000BYN                                                                                                                                                                
P1589344778 630798460          STATEAL           00012022080500000256596000001504910000025659600000000000000000000000000000000000000000000000000000000008000000000256596000000256596000000000000000000000000000000000000000000000000000000000000                    D22 District ManagerS005000000                              
E1261088276                  Hoskins         ArnoldD           000420080428        A                                                                                     20080428101784                                                                                                                                         
E2261088276           2232 Riverway Drive                                       Old HickoryTN37138                       Programming Analyst 2SF0050000004000BYN                                                                                                                                                                
P1261088276 630798460          STATETN           00042022080500000243035000001817870000024303500000000000000000000000000000000000000000000000000000000008000000000243035000000243035000000000000000000000000000000000000000000000000000000000000                   Programming Analyst 2S005000000                              
E1249636890                  Lindsey       Marybeth            000120080822        A                                                                                     20080822103339                                                                                                                                         
E2249636890             821 STONERIDGE DR                                            HELENAAL35080    Vice President of DMM General MerchandisSF0050000004000BNN                                                                                                                                                                
P1249636890 630798460          STATEAL           00012022080500000305769000001934060000030576900000000000000000000000000000000000000000000000000000000008000000000305769000000305769000000000000000000000000000000000000000000000000000000000000Vice President of DMM General MerchandisS005000000                              
E1254610871                     Ford          LaceyA           059820081130        A                                                                                     20220106104989                                                                                                                                         
E2254610871                 681 SHILOH RD                                       JENKINSBURGGA30234                             General ManagerSF0050000004000BYN                                                                                                                                                                
P1254610871 630798460          STATEGA           05982022080500000184616000001471620000018461600000000000000000000000000000000000000000000000000000000008000000000184616000000184616000000000000000000000000000000000000000000000000000000000000                         General ManagerS005000000                              
E1268927889                   Farren        JessicaD           082220090221        A                                                                                     20100730106106                                                                                                                                         
E2268927889                   8 Fuller Dr                                           NorwalkOH44857                             General ManagerSF0050000004000BNN                                                                                                                                                                
P1268927889 630798460          STATEOH           08222022080500000182039000001552780000018203900000000000000000000000000000000000000000000000000000000008000000000182039000000182039000000000000000000000000000000000000000000000000000000000000                         General ManagerS005000000                              
E1262579018                    Green           EdieB           000120090501        A                                                                                     20090501106762                                                                                                                                         
E2262579018     4283 MC CLENDON CHAPEL RD                                          BESSEMERAL35022                    Lease Compliance ManagerSF0050000004000BYN                                                                                                                                                                
P1262579018 630798460          STATEAL           00012022080500000278101000002061200000027810100000000000000000000000000000000000000000000000000000000008000000000278101000000278101000000000000000000000000000000000000000000000000000000000000                Lease Compliance ManagerS005000000                              
E1423412255                 McDaniel         Olivia            000120090608        A                                                                                     20170604107187                                                                                                                                         
E2423412255             122 pinebluff trl                                        TrussvilleAL35173                 Publisher Relations ManagerSF0050000004000BYN                                                                                                                                                                
P1423412255 630798460          STATEAL           00012022080500000288462000001907800000028846200000000000000000000000000000000000000000000000000000000008000000000288462000000288462000000000000000000000000000000000000000000000000000000000000             Publisher Relations ManagerS005000000                              
E1420025553                      May        Stephen            000120090630        A                                                                                     20090630107435                                                                                                                                         
E2420025553                                                                                                         Senior Planner/DistributorSF0050000004000BYN                                                                                                                                                                
P1420025553 630798460          STATEAL           00012022080500000250055000001699410000025005500000000000000000000000000000000000000000000000000000000008000000000250055000000250055000000000000000000000000000000000000000000000000000000000000              Senior Planner/DistributorS005000000                              
E1517588679                   Ganter           Mark            000120091101        A                                                                                     20091101108729                                                                                                                                         
E2517588679                24 pinelynn Dr                                        Palm CoastFL32164                        D12 District ManagerSF0050000004000BYN                                                                                                                                                                
P1517588679 630798460          STATEAL           00012022080500000277989000001689120000027798900000000000000000000000000000000000000000000000000000000008000000000277989000000277989000000000000000000000000000000000000000000000000000000000000                    D12 District ManagerS005000000                              
E1224514599              Robinson Jr           CarlE           000120091030        A                                                                                     20091030108755                                                                                                                                         
E2224514599      2456 SEABURY PLACE NORTH                                      JACKSONVILLEFL32246                    D53 District Manager 2NCSF0050000004000BNN                                                                                                                                                                
P1224514599 814335486          STATEAL           00012022080500000244231000001847360000024423100000000000000000000000000000000000000000000000000000000008000000000244231000000244231000000000000000000000000000000000000000000000000000000000000                D53 District Manager 2NCS005000000                              
E1526932934               Middendorf         Joseph            031620091124        A                                                                                     20091124109110                                                                                                                                         
E2526932934      395 BILL FRANCE BLVD #69                                     DAYTONA BEACHFL32114                              Gneral ManagerSF0050000004000BYN                                                                                                                                                                
P1526932934 630798460          STATEFL           03162022080500000176086000001539910000017608600000000000000000000000000000000000000000000000000000000008000000000176086000000176086000000000000000000000000000000000000000000000000000000000000                          Gneral ManagerS005000000                              
E1438171647                 Ferguson          Janet            044220100220        A                                                                                     20100220110224                                                                                                                                         
E2438171647    17726 Sulphur Springs Road                                           MalvernAR72104                             General ManagerSF0050000004000BNN                                                                                                                                                                
P1438171647 630798460          STATEAR           04422022080500000200285000001631120000020028500000000000000000000000000000000000000000000000000000000008000000000200285000000200285000000000000000000000000000000000000000000000000000000000000                         General ManagerS005000000                              
E1418136419                 Marshall          KatieB           000120100101        A                                                                                     20100101110406                                                                                                                                         
E2418136419            904 Sheridan Drive                                        BirminghamAL35213                  Executive Assistant to CEOHP0000015002000BNN                                                                                                                                                                
P1418136419 630798460          STATEAL           00012022080500000060040000000527960000006004000000000000000000000000000000000000000000000000000000000008000000000060040000000060040000000000000000000000000000000000000000000000000000000000000              Executive Assistant to CEOH000001500                              
E1420314858                    Weems          DavidB           000220100401        A                                                                                     20100401110512                                                                                                                                         
E2420314858              208 Shaler Drive                                            KillenAL35645                              OUTSIDE VENDORSF0050000004000BYN                                                                                                                                                                
P1420314858 842514278          STATEAL           00022022080500000186743000001182280000018674300000000000000000000000000000000000000000000000000000000008000000000186743000000186743000000000000000000000000000000000000000000000000000000000000                          OUTSIDE VENDORS005000000                              
E1629019707                 Lankford        Richard            000120100616        A                                                                                     20100616111504                                                                                                                                         
E2629019707                 555 Upland St                                         PottstownPA19464                        D32 District ManagerSF0050000004000BYN                                                                                                                                                                
P1629019707 630798460          STATEAL           00012022080500000249664000001975780000024966400000000000000000000000000000000000000000000000000000000008000000000249664000000249664000000000000000000000000000000000000000000000000000000000000                    D32 District ManagerS005000000                              
E1655035161                     Ravi           AnurN           000420100927        A                                                                                     20100927112785                                                                                                                                         
E2655035161              501 Camden Court                                        Mt .JulietTN37122                  Senior Programming AnalystSF0050000004000BYN                                                                                                                                                                
P1655035161 630798460          STATETN           00042022080500000276193000001782740000027619300000000000000000000000000000000000000000000000000000000008000000000276193000000276193000000000000000000000000000000000000000000000000000000000000              Senior Programming AnalystS005000000                              
E1587591095                   Stokes          EricaJ           000120101025        A                                                                                     20101025113517                                                                                                                                         
E2587591095       1301 HAMPTON PARK DRIVE                                            HOOVERAL35216                                       BuyerSF0050000004000BYN                                                                                                                                                                
P1587591095 630798460          STATEAL           00012022080500000195440000001308410000019544000000000000000000000000000000000000000000000000000000000008000000000195440000000195440000000000000000000000000000000000000000000000000000000000000                                   BuyerS005000000                              
E1423414606                Yarbrough         ElainaD           062620101128        A                                                                                     20140625113900                                                                                                                                         
E2423414606            9850 Twin Beech Rd                                          FairhopeAL36532                             General ManagerSF0050000004000BYN                                                                                                                                                                
P1423414606 630798460          STATEAL           06262022080500000192401000001522190000019240100000000000000000000000000000000000000000000000000000000008000000000192401000000192401000000000000000000000000000000000000000000000000000000000000                         General ManagerS005000000                              
E1241334147                   Taylor        MatthewF           000120110207        A                                                                                     20110207114362                                                                                                                                         
E2241334147                                                                                                         Executive Assistant to CEOHP0000015002000BNN                                                                                                                                                                
P1241334147 630798460          STATEAL           00012022080500000060040000000527960000006004000000000000000000000000000000000000000000000000000000000008000000000060040000000060040000000000000000000000000000000000000000000000000000000000000              Executive Assistant to CEOH000001500                              
E1535962733                    Keith        JessicaR           000120110214        A                                                                                     20110214114437                                                                                                                                         
E2535962733           187 Hidden Trace Ct                                        MontevalloAL35115                      Senior Payroll AnalystSF0050000004000BYN                                                                                                                                                                
P1535962733 630798460          STATEAL           00012022080500000247594000001712440000024759400000000000000000000000000000000000000000000000000000000008000000000247594000000247594000000000000000000000000000000000000000000000000000000000000                  Senior Payroll AnalystS005000000                              
E1424358084                 Conatser         Harold            000120110223        A                                                                                     20110223114659                                                                                                                                         
E2424358084               418 Skyview Dr.                        Unit E            HomewoodAL35209                         Programming AnalystSF0050000004000BYN                                                                                                                                                                
P1424358084 630798460          STATEAL           00012022080500000214854000001307310000021485400000000000000000000000000000000000000000000000000000000008000000000214854000000214854000000000000000000000000000000000000000000000000000000000000                     Programming AnalystS005000000                              
E1420843324                Tsimpides         SherryA           000120110314        A                                                                                     20110314114814                                                                                                                                         
E2420843324        1479 SECRETARIAT DRIVE                                            HELENAAL35080                         Planner/DistributorSF0050000004000BNN                                                                                                                                                                
P1420843324 630798460          STATEAL           00012022080500000247985000001926050000024798500000000000000000000000000000000000000000000000000000000008000000000247985000000247985000000000000000000000000000000000000000000000000000000000000                     Planner/DistributorS005000000                              
E1249830920                    Lyles       KendrickJ           027720110415        A                                                                                     20110415115163                                                                                                                                         
E2249830920                17 RALPH COURT                                        BLYTHEWOODSC29016                             General ManagerSF0050000004000BYN                                                                                                                                                                
P1249830920 630798460          STATESC           02772022080500000173077000001262730000017307700000000000000000000000000000000000000000000000000000000008000000000173077000000173077000000000000000000000000000000000000000000000000000000000000                         General ManagerS005000000                              
E1163461718                  Repella          CathyA           000119810801        A                                                                                     19810801116788                                                                                                                                         
E2163461718                219 Smith Lane                                      Beaver FallsPA15010                        D34 District ManagerSF0050000004000BYN                                                                                                                                                                
P1163461718 630798460          STATEAL           00012022080500000275171000001913440000027517100000000000000000000000000000000000000000000000000000000008000000000275171000000275171000000000000000000000000000000000000000000000000000000000000                    D34 District ManagerS005000000                              
E1504962517                  Barrows          Tammy            078519990801        A                                                                                     19990801116913                                                                                                                                         
E2504962517                                                                                                                    General ManagerSF0050000004000BYN                                                                                                                                                                
P1504962517 630798460          STATESD           07852022080500000224717000001138680000022471700000000000000000000000000000000000000000000000000000000008000000000224717000000224717000000000000000000000000000000000000000000000000000000000000                         General ManagerS005000000                              
E1493867467                  Rademan         TrishaK           035119961101        A                                                                                     19961101116954                                                                                                                                         
E2493867467                836 OAK AVENUE                                       VALLEY PARKMO63088                             General ManagerSF0050000004000BYN                                                                                                                                                                
P1493867467 630798460          STATEIL           03512022080500000224952000001615720000022495200000000000000000000000000000000000000000000000000000000008000000000224952000000224952000000000000000000000000000000000000000000000000000000000000                         General ManagerS005000000                              
E1173487812                   Sawyer         Deanna            059019940901        A                                                                                     19940901116995                                                                                                                                         
E2173487812                535 Millbridge                                         ClementonNJ08021                             General ManagerSF0050000004000BNN                                                                                                                                                                
P1173487812 630798460          STATENJ           05902022080500000236021000001663650000023602100000000000000000000000000000000000000000000000000000000008000000000236021000000236021000000000000000000000000000000000000000000000000000000000000                         General ManagerS005000000                              
E1310022069                  Barnaby         KristiL           21002011092620220908T                                                                                     20110926117010                                                                                                                                         
E2310022069          528 Riverchase Trail                                            HooverAL35244                             General ManagerSF0050000004000BNN                                                                                                                                                                
P1310022069 814335486          STATEAL           21002022080500000221154000001797310000022115400000000000000000000000000000000000000000000000000000000008000000000221154000000221154000000000000000000000000000000000000000000000000000000000000                         General ManagerS005000000                              
E1390761878                   Henkes           JillS           035019980623        A                                                                                     19980623117072                                                                                                                                         
E2390761878              703 Dodge Street                                        Eau ClaireWI54701                             General ManagerSF0050000004000BYN                                                                                                                                                                
P1390761878 630798460          STATEWI           03502022080500000204340000001561750000020434000000000000000000000000000000000000000000000000000000000008000000000204340000000204340000000000000000000000000000000000000000000000000000000000000                         General ManagerS005000000                              
E1299901396                     Bare       JenniferL           015820101021        A                                                                                     20101021117301                                                                                                                                         
E2299901396         258 Township Road 337                                        Kitts HillOH45645                             General ManagerSF0050000004000BYN                                                                                                                                                                
P1299901396 630798460          STATEWV           01582022080500000195893000001387940000019589300000000000000000000000000000000000000000000000000000000008000000000195893000000195893000000000000000000000000000000000000000000000000000000000000                         General ManagerS005000000                              
E1227211504              Dittmar Jr.        CharlesD           210320111012        A                                                                                     20111012117303                                                                                                                                         
E2227211504               411 Broad Drive                                           RAEFORDNC28376                             General ManagerSF0050000004000BNN                                                                                                                                                                
P1227211504 814335486          STATENC           21032022080500000182885000001452590000018288500000000000000000000000000000000000000000000000000000000008000000000182885000000182885000000000000000000000000000000000000000000000000000000000000                         General ManagerS005000000                              
E1216906257                     Myer           JodiL           013420090601        A                                                                                     20090601117424                                                                                                                                         
