H120230213COMPANY CODE                            COMPANY NAME                                                                                                                                                                                                                                                                  
E1418782403                 Anderson          ClydeB           000119820429        A                                                                                     1982042970                                                                                                                                             
E2418782403                22 KING STREET                                        CHARLESTONSC29401                       Chairman of the BoardSF0486860404000BYN                                                                                                                                                                
P1418782403 630798460          STATEAL           00012022123000001404405000010576460000140440500000000000000000000000000000000000000000000000000000000006000000000000000000000000000000000000000000000000000000000000000000000000000000000000000                   Chairman of the BoardS048686040                              
E1423068956                  Cogburn          StacyF           000119870511        A                                                                                     1987051184                                                                                                                                             
E2423068956          3407 SURREYHILL LANE                                        BIRMINGHAMAL35243                  Executive Assistant to COBHF0000030004000BNN                                                                                                                                                                
P1423068956 630798460          STATEAL           00012022123000000240000000001690060000024000000000000000000000000000000000000000000000000000000000000008000000000000000000000000000000000000000000000000000000000000000000000000000000000000000              Executive Assistant to COBH000003000                              
E1081603491                   Connor         LeslieB           000119961207        A                                                                                     19961207108                                                                                                                                            
E2081603491             1145 NE 11 AVENUE                                     FT LAUDERDALEFL33304                            District ManagerSF0084240004000BYN                                                                                                                                                                
P1081603491 630798460          STATEAL           00012022123000000648000000004674900000032400000000000000000000000000000000000000000000000000000000000008000000000000000000000000000000000000000000000000000000000000000000000000000000000000000                        District ManagerS008424000                              
E1247352269                     Pike         DanielL           028620000619        A                                                                                     20000619126                                                                                                                                            
E2247352269            1402 Summerlake Dr                                           ConcordNC28025                    General Manager SalariedSF0061327354000BYN                                                                                                                                                                
P1247352269 630798460          STATENC           02862022123000000235874000001366340000023587400000000000000000000000000000000000000000000000000000000008000000000000000000000000000000000000000000000000000000000000000000000000000000000000000                General Manager SalariedS006132735                              
E1275887229                  Moseley       JenniferJ           000119980804        A                                                                                     19980804145                                                                                                                                            
E2275887229        1443 18TH STREET SOUTH                                        BIRMINGHAMAL35205                            VP of OperationsSP0000015004000BYN                                                                                                                                                                
P1275887229 630798460          STATEAL           00012022123000000231202000001142990000023120200000000000000000000000000000000000000000000000000000000008000000000000000000000000000000000000000000000000000000000000000000000000000000000000000                        VP of OperationsS000001500                              
E1377726779                   Devowe           Tina            000120030427        A                                                                                     20160113159                                                                                                                                            
E2377726779             1226 5th Avenue N                                         NashvilleTN37208                            District ManagerSF8197832.0000000014000BYN                                                                                                                                                                
P1377726779 630798460          STATEAL           00012022123000000315302000002502970000031530200000000000000000000000000000000000000000000000000000000008000000000000000000000000000000000000000000000000000000000000000000000000000000000000000                        District ManagerS8197832.000000001                              
E1501882723                 Thompson         BonnieS           000119891021        A                                                                                     19891021226                                                                                                                                            
E2501882723       1702 RUSSET HILL CIRCLE                                        BirminghamAL35244                           VP of Real EstateSF0117300004000BNN                                                                                                                                                                
P1501882723 630798460          STATEAL           00012022123000000451154000003239980000045115400000000000000000000000000000000000000000000000000000000008000000000000000000000000000000000000000000000000000000000000000000000000000000000000000                       VP of Real EstateS011730000                              
E1267812285                   Turner          JamesF           000119980301        A                                                                                     20161106240                                                                                                                                            
E2267812285             1848 Southwood Rd                                        BirminghamAL35216                            President of PGPSF0319800004000BYN                                                                                                                                                                
P1267812285 630798460          STATEAL           00012022123000001230000000010448160000123000000000000000000000000000000000000000000000000000000000000008000000000000000000000000000000000000000000000000000000000000000000000000000000000000000                        President of PGPS031980000                              
E1030528221                   Zoldak          BruceS           000220050803        A                                                                                     20050803261                                                                                                                                            
E2030528221          1812 COUNTY ROAD 126                                          WATERLOOAL35677                      Equipment Service LeadHF0000023534000BYN                                                                                                                                                                
P1030528221 630798460          STATEAL           00022022123000000208182000001558140000018824000000019942000000000000000000000000000000000000000000000008565000000000000000000000000000000000000000000000000000000000000000000000000000000000000                  Equipment Service LeadH000002353                              
E1422888415                    Adams        StephenG           000119950911        A                                                                                     19950911324                                                                                                                                            
E2422888415           7190 BRANDON CIRCLE                                            PINSONAL35126               iSeries Operations SupervisorSF7034199.0000000014000BYN                                                                                                                                                                
P1422888415 630798460          STATEAL           00012022123000000270546000001849900000027054600000000000000000000000000000000000000000000000000000000008000000000000000000000000000000000000000000000000000000000000000000000000000000000000000           iSeries Operations SupervisorS7034199.000000001                              
E1424824236                    Roden        DewayneM           000120001030        A                                                                                     20001030337                                                                                                                                            
E2424824236           229 GLENWOOD AVENUE                                      RUSSELLVILLEAL35654              Corprate Applications DirectorSF0140000004000BYN                                                                                                                                                                
P1424824236 630798460          STATEAL           00012022123000000538462000004125720000053846200000000000000000000000000000000000000000000000000000000008000000000000000000000000000000000000000000000000000000000000000000000000000000000000000          Corprate Applications DirectorS014000000                              
E1428191609                  Johnson       VenesterM           000119931018        A                                                                                     19931018343                                                                                                                                            
E2428191609                                                                                                            Sr Help Desk TechnicianHF0068127914000BYN                                                                                                                                                                
P1428191609 630798460          STATEAL           00012022123000545023280004762070940054502328000000000000000000000000000000000000000000000000000000000008000000000000000000000000000000000000000000000000000000000000000000000000000000000000000                 Sr Help Desk TechnicianH006812791                              
E1164566815                    Blake           ErinM           000119821106        A                                                                                     19821106367                                                                                                                                            
E2164566815       3550 GRANDVIEW PKW 1018                                        BIRMINGHAMAL35243               Mercury Coordinator Plan DistSF0075466974000BYN                                                                                                                                                                
P1164566815 630798460          STATEAL           00012022123000000290258000001898340000029025800000000000000000000000000000000000000000000000000000000008000000000000000000000000000000000000000000000000000000000000000000000000000000000000000           Mercury Coordinator Plan DistS007546697                              
E1253392268                 Rupp Jr.        RichardO           000120050329        A                                                                                     20161101379                                                                                                                                            
E2253392268           2019 Fairhaven Lane                                      MurfreesboroTN37128                 VP Used Sales and InventorySF0164752474000BYN                                                                                                                                                                
P1253392268 814335486          STATEAL           00012022123000000633664000005047790000063366400000000000000000000000000000000000000000000000000000000008000000000000000000000000000000000000000000000000000000000000000000000000000000000000000             VP Used Sales and InventoryS016475247                              
E1410374997              Crutchfield           ErinB           000120050503        A                                                                                     20050503393                                                                                                                                            
E2410374997         8026 ROCK HAMPTON CIR                                            HELENAAL35080                                 Buyer BooksSF0059958994000BYN                                                                                                                                                                
P1410374997 630798460          STATEAL           00012022123000000230612000001682550000023061200000000000000000000000000000000000000000000000000000000008000000000000000000000000000000000000000000000000000000000000000000000000000000000000000                             Buyer BooksS005995899                              
E1424748061                   Finley       TerranceG           000119850901        A                                                                                     19850901440                                                                                                                                            
E2424748061               11 BONITA DRIVE                                          HOMEWOODAL35209                     Chief Executive OfficerSF0486217684000BYN                                                                                                                                                                
P1424748061 630798460          STATEAL           00012022123000001870068000014693140000187006800000000000000000000000000000000000000000000000000000000008000000000000000000000000000000000000000000000000000000000000000000000000000000000000000                 Chief Executive OfficerS048621768                              
E1149623666                   Bethea         SaritaL           000119941212        A                                                                                     19941212708                                                                                                                                            
E2149623666             6340 WALNUT DRIVE                                            PinsonAL35126                Director of Accounts PayableSF13586998.0000000024000BYN                                                                                                                                                                
P1149623666 630798460          STATEAL           00012022123000000522577000002998020000052257700000000000000000000000000000000000000000000000000000000008000000000000000000000000000000000000000000000000000000000000000000000000000000000000000            Director of Accounts PayableS13586998.000000002                              
E1151620003                  Johnson    Test DebbieA           000120010129        A                                                                                     20010129709                                                                                                                                            
E2151620003       test 401 14TH STREET SW                                        BIRMINGHAMAL35211                              Vendor AnalystHF0000018184000BNN                                                                                                                                                                
P1151620003 630798460          STATEAL           00012022123000000149349000001168180000014934900000000000000000000000000000000000000000000000000000000008215000000000000000000000000000000000000000000000000000000000000000000000000000000000000                          Vendor AnalystH000001818                              
E1215588538               Wallington        RichardS           000119930901        A                                                                                     19930901714                                                                                                                                            
E2215588538      1410 TIMBER RIDGE CIRCLE                                            HOOVERAL35244                        Executive ConsultantSF0074582094000BYN                                                                                                                                                                
P1215588538 630798460          STATEAL           00012022123000000286854000002276160000028685400000000000000000000000000000000000000000000000000000000008000000000000000000000000000000000000000000000000000000000000000000000000000000000000000                    Executive ConsultantS007458209                              
E1266751629                   McCray         SharonD           00011998101920230104T                                                                                     19981019723                                                                                                                                            
E2266751629             2025 9TH PLACE NW                                        BIRMINGHAMAL35215                              Vendor AnalystHF0000016074000BNN                                                                                                                                                                
P1266751629 630798460          STATEAL           00012022123000000129436000000955360000012883300000000603000000000000000000000000000000000000000000000008042000000000000000000000000000000000000000000000000000000000000000000000000000000000000                          Vendor AnalystH000001607                              
E1418626680                   Krantz           SaraA           000120060109        A                                                                                     20060109773                                                                                                                                            
E2418626680              3901 ASBURY ROAD                                        BIRMINGHAMAL35243                               Finance AdminHF0000018874000BNN                                                                                                                                                                
P1418626680 630798460          STATEAL           00012022123000000187303000001399610000015096000000036343000000000000000000000000000000000000000000000009284000000000000000000000000000000000000000000000000000000000000000000000000000000000000                           Finance AdminH000001887                              
E1419907891                     Ford      CatherineD           000119920513        A                                                                                     19920513786                                                                                                                                            
E2419907891             104 MAHONE AVENUE                                          HUEYTOWNAL35023                           AP Vendor ManagerSF0085752284000BNN                                                                                                                                                                
P1419907891 630798460          STATEAL           00012022123000000329817000002304110000032981700000000000000000000000000000000000000000000000000000000008000000000000000000000000000000000000000000000000000000000000000000000000000000000000000                       AP Vendor ManagerS008575228                              
E1421908652                     Cook          TonyaS           00011998010220230111T                                                                                     19980102804                                                                                                                                            
E2421908652       1113 50TH STREET ENSLEY                                        BIRMINGHAMAL35208                              Vendor AnalystHF0070000004000BYN                                                                                                                                                                
P1421908652 630798460          STATEAL           00012022123000000180895000001045670000017224000000008655000000000000000000000000000000000000000000000008268000000000000000000000000000000000000000000000000000000000000000000000000000000000000                          Vendor AnalystH007000000                              
E1423068360            Williams Test   Test SabrinaT           000119920831        A                                                                                     20060410811                                                                                                                                            
E2423068360          123 main street test                                           TestingAL35211                              Vendor AnalystHF0060000004000BYN                                                                                                                                                                
P1423068360 630798460          STATEAL           00012022123000000151692000000736470000015169200000000000000000000000000000000000000000000000000000000008073000000000000000000000000000000000000000000000000000000000000000000000000000000000000                          Vendor AnalystH006000000                              
E1424040462                    Green   test RodesiaC           000119961209        A                                                                                     19961209825                                                                                                                                            
E2424040462   test 316 SOUTH PARK ROAD SW                                        BIRMINGHAMAL35211                              Vendor AnalystHF0000025004000BYN                                                                                                                                                                
P1424040462 630798460          STATEAL           00012022123000000162107000000842220000016210700000000000000000000000000000000000000000000000000000000008065000000000000000000000000000000000000000000000000000000000000000000000000000000000000                          Vendor AnalystH000002500                              
E1457895995                    Jones        HeatherS           000120051212        A                                                                                     20051212842                                                                                                                                            
E2457895995          514 RIVERCHASE TRAIL                                        BIRMINGHAMAL35244             Budgeting and Treasury DirectorSF0117223154000BYN                                                                                                                                                                
P1457895995 630798460          STATEAL           00012022123000000450858000003359030000045085800000000000000000000000000000000000000000000000000000000008000000000000000000000000000000000000000000000000000000000000000000000000000000000000000         Budgeting and Treasury DirectorS011722315                              
E1587464096                   Horton         Dennis            000119971201        A                                                                                     20030406853                                                                                                                                            
E2587464096      5152 VALLEY BROOK CIRCLE                                        BIRMINGHAMAL35244                  Financial Analysis ManagerSF0090737174000BYN                                                                                                                                                                
P1587464096 630798460          STATEAL           00012022123000000348990000001454190000034899000000000000000000000000000000000000000000000000000000000008000000000000000000000000000000000000000000000000000000000000000000000000000000000000000              Financial Analysis ManagerS009073717                              
E1589503991                 Williams          DavidP           000120060306        A                                                                                     20060306855                                                                                                                                            
E2589503991                109 REID DRIVE                                        TRUSSVILLEAL35173                        Gross Profit ManagerSF0070669274000BYN                                                                                                                                                                
P1589503991 630798460          STATEAL           00012022123000000271804000001640270000027180400000000000000000000000000000000000000000000000000000000008000000000000000000000000000000000000000000000000000000000000000000000000000000000000000                    Gross Profit ManagerS007066927                              
E1416211374                 Lawrence         JosephD           000120031208        A                                                                                     20031208899                                                                                                                                            
E2416211374    11990 MAGNOLIA SPRINGS HWY                                  MAGNOLIA SPRINGSAL36555                               LP SupervisorSF7563503.9999999994000BYN                                                                                                                                                                
P1416211374 630798460          STATEAL           00012022123000000290904000001914710000029090400000000000000000000000000000000000000000000000000000000008000000000000000000000000000000000000000000000000000000000000000000000000000000000000000                           LP SupervisorS7563503.999999999                              
E1423882713                   Stoves       LawrenceC           000120040211        A                                                                                     20040211906                                                                                                                                            
E2423882713            216 WESTWOOD DRIVE                                          BESSEMERAL35022                 Director of Loss PreventionSF0105060004000BYN                                                                                                                                                                
P1423882713 630798460          STATEAL           00012022123000000404076000003062590000040407600000000000000000000000000000000000000000000000000000000008000000000000000000000000000000000000000000000000000000000000000000000000000000000000000             Director of Loss PreventionS010506000                              
E1250439555                    Hayes           JohnM           012420050126        A                                                                                     200501263029                                                                                                                                           
E2250439555            103 WOODROW STREET                                            BELTONSC29627                    General Manager SalariedSF0046125004000BYN                                                                                                                                                                
P1250439555 630798460          STATESC           01242022123000000177404000000999300000017740400000000000000000000000000000000000000000000000000000000008000000000000000000000000000000000000000000000000000000000000000000000000000000000000000                General Manager SalariedS004612500                              
E1251679177                 Mitchell         WalterS           012420060525        A                                                                                     200605253084                                                                                                                                           
E2251679177 2418 MARCHBANKS AVE. APT. 32H                                          ANDERSONSC29621                                  Key HolderHF0000011664000BYN                                                                                                                                                                
P1251679177 630798460          STATESC           01242022123000000089491000000603650000008949100000000000000000000000000000000000000000000000000000000007675000000000000000000000000000000000000000000000000000000000000000000000000000000000000                              Key HolderH000001166                              
E1375645838                  Sowards         DeannaR           012420051011        A                                                                                     201912023135                                                                                                                                           
E2375645838            207 BROOKHAVEN DR.                                          ANDERSONSC29624                                        LeadHF0000009754000BYN                                                                                                                                                                
P1375645838 630798460          STATESC           01242022123000000067811000000484860000006781100000000000000000000000000000000000000000000000000000000006955000000000000000000000000000000000000000000000000000000000000000000000000000000000000                                    LeadH000000975                              
E1255021464                   Walden          TerryV           014920011011        A                                                                                     200110115052                                                                                                                                           
E2255021464                   2570 HWY 11                                            MONROEGA30656                                 Book SellerHF0000012494000BYN                                                                                                                                                                
P1255021464 630798460          STATEGA           01492022123000000096111000000759040000009611100000000000000000000000000000000000000000000000000000000007695000000000000000000000000000000000000000000000000000000000000000000000000000000000000                             Book SellerH000001249                              
E1247893883                     Bell        MelissaM           210119971122        A                                                                                     199711225447                                                                                                                                           
E2247893883           1789 WILLISTON ROAD                                     NORTH AUGUSTASC29841                                   AssociateHF0000009514000BYN                                                                                                                                                                
P1247893883 814335486          STATEGA           21012022123000000060893000000545910000006089300000000000000000000000000000000000000000000000000000000006403000000000000000000000000000000000000000000000000000000000000000000000000000000000000                               AssociateH000000951                              
E1260985156                   Kersey        MichaelA           210119970907        A                                                                                     199709075724                                                                                                                                           
E2260985156            3655 BRANNEN DRIVE                                           AUGUSTAGA30907                          Buy Back AssociateHF0000010714000BYN                                                                                                                                                                
P1260985156 814335486          STATEGA           21012022123000000032666000000255190000003266600000000000000000000000000000000000000000000000000000000003050000000000000000000000000000000000000000000000000000000000000000000000000000000000000                      Buy Back AssociateH000001071                              
E1428235040                    Haugh         AngelaR           017619841127        A                                                                                     200408298208                                                                                                                                           
E2428235040              2209 KEVIN COURT                                          GULFPORTMS39507                                        LeadHF0000011134000BYN                                                                                                                                                                
P1428235040 630798460          STATEMS           01762022123000000084844000000446090000008484400000000000000000000000000000000000000000000000000000000007623000000000000000000000000000000000000000000000000000000000000000000000000000000000000                                    LeadH000001113                              
E1424138079                   Jordan          Tamia            039419951108        A                                                                                     199808318538                                                                                                                                           
E2424138079               2515 UNIVERSITY                                        BIRMINGHAMAL35223                                 Book SellerHF0000009174000BYN                                                                                                                                                                
P1424138079 630798460          STATEAL           03942022123000000068353000000388650000006835300000000000000000000000000000000000000000000000000000000007454000000000000000000000000000000000000000000000000000000000000000000000000000000000000                             Book SellerH000000917                              
E1421331441                  Belrose        MichaelD           000120040625        A                                                                                     2017092510630                                                                                                                                          
E2421331441            124 SOMERSBY DRIVE                                            PELHAMAL35124                        IT Technical AnalystHF1889.99999999999984000BYN                                                                                                                                                                
P1421331441 630798460          STATEAL           00012022123000000152872000001108000000014813800000004734000000000000000000000000000000000000000000000008005000000000000000000000000000000000000000000000000000000000000000000000000000000000000                    IT Technical AnalystH1889.9999999999998                              
E1590347648                 Barfield          DavidE           038720001226        A                                                                                     2017082310894                                                                                                                                          
E2590347648                    PO Box 816                                      Lehigh AcresFL33970                                 Book SellerHP1019.99999999999992000BNN                                                                                                                                                                
P1590347648 630798460          STATEFL           03872022123000000014688000000105910000001468800000000000000000000000000000000000000000000000000000000001440000000000000000000000000000000000000000000000000000000000000000000000000000000000000                             Book SellerH1019.9999999999999                              
E1180509573                  Riether          RogerL           000120050526        A                                                                                     2005052611042                                                                                                                                          
E2180509573          534 FOREST LAKES DR.                                          STERRETTAL35147                     Region 2 Vice PresidentSF0126699244000BYN                                                                                                                                                                
P1180509573 630798460          STATEAL           00012022123000000487304000003499790000048730400000000000000000000000000000000000000000000000000000000008000000000000000000000000000000000000000000000000000000000000000000000000000000000000000                 Region 2 Vice PresidentS012669924                              
E1404842731                Carpenter        DeloresK           062219961106        A                                                                                     1996110611052                                                                                                                                          
E2404842731         2577 HARDY ACRES ROAD                                        BIRMINGHAMAL35210                                        LeadHF0000012004000BYN                                                                                                                                                                
P1404842731 630798460          STATEFL           06222022123000000111516000000842160000009600000000015516000000000000000000000000000000000000000000000008862000000000000000000000000000000000000000000000000000000000000000000000000000000000000                                    LeadH000001200                              
E1416198605                  Lindsey           AlanC           021620050325        A                                                                                     2005032511057                                                                                                                                          
E2416198605        5855 WALNUT GROVE ROAD                                        BIRMINGHAMAL35215                   Assistant General ManagerHP0000014252000BNN                                                                                                                                                                
P1416198605 630798460          STATEAL           02162022123000000018495000000146660000001849500000000000000000000000000000000000000000000000000000000002055000000000000000000000000000000000000000000000000000000000000000000000000000000000000               Assistant General ManagerH000001425                              
E1416828571                  Freeman           TaraL           210020000815        A                                                                                     2000081511073                                                                                                                                          
E2416828571            9848 REDCLIFF ROAD                                        BIRMINGHAMAL35215                    General Manager SalariedSF0048599774000BYN                                                                                                                                                                
P1416828571 630798460          STATEAL           21002022123000000179230000001422440000017923000000000000000000000000000000000000000000000000000000000008000000000000000000000000000000000000000000000000000000000000000000000000000000000000000                General Manager SalariedS004859977                              
E1418906152                  Huckaby           MaryE           000120030420        A                                                                                     2003042011113                                                                                                                                          
E2418906152                2409 CARMEL RD                                        BIRMINGHAMAL35235                 Human Resources CoordinatorHF0000017784000BNN                                                                                                                                                                
P1418906152 630798460          STATEAL           00012022123000000144516000000997210000014339600000001120000000000000000000000000000000000000000000000008107000000000000000000000000000000000000000000000000000000000000000000000000000000000000             Human Resources CoordinatorH000001778                              
E1240474207                     Lane        AllisonE           021620050928        A                                                                                     2016032311310                                                                                                                                          
E2240474207            1402 FESTIVAL LANE                                        MONTGOMERYAL36117                                  Co ManagerHP0000010544000BNN                                                                                                                                                                
P1240474207 630798460          STATEAL           02162022123000000010837000000100080000001083700000000000000000000000000000000000000000000000000000000001269000000000000000000000000000000000000000000000000000000000000000000000000000000000000                              Co ManagerH000001054                              
E1418132039                    Brady           AbbyL           000120050620        A                                                                                     2005062011337                                                                                                                                          
E2418132039               3987 NATCHEZ DR                                        BIRMINGHAMAL35243                                  Buyer CafeSF0054292004000BYN                                                                                                                                                                
P1418132039 630798460          STATEAL           00012022123000000208816000001074830000020881600000000000000000000000000000000000000000000000000000000008000000000000000000000000000000000000000000000000000000000000000000000000000000000000000                              Buyer CafeS005429200                              
E1258435652                     Roth          TonyaN           023020051220        A                                                                                     2005122013069                                                                                                                                          
E2258435652                7177 SAVAGE RD                                         BrunswickGA31525                                  Co ManagerHF0000011534000BYN                                                                                                                                                                
P1258435652 630798460          STATEGA           02302022123000000127695000000978580000009224000000035455000000000000000000000000000000000000000000000010050000000000000000000000000000000000000000000000000000000000000000000000000000000000000                              Co ManagerH000001153                              
E1368746498                  Hawkins          CarlaJ           000119961112        A                                                                                     1996111213812                                                                                                                                          
E2368746498          122 OYSTER POINT ROW                                        CHARLESTONSC29412                            District ManagerSF0094095004000BYN                                                                                                                                                                
P1368746498 630798460          STATEAL           00012022123000000361904000002030220000036190400000000000000000000000000000000000000000000000000000000008000000000000000000000000000000000000000000000000000000000000000000000000000000000000000                        District ManagerS009409500                              
E1398048949                  Spencer       CarolineA           012420060420        A                                                                                     2021102313817                                                                                                                                          
E2398048949                  219 MILL AVE                                           CENTRALSC29630                                        LeadHF0000011294000BYN                                                                                                                                                                
P1398048949 630798460          STATESC           01242022123000000011810000000009220000001181000000000000000000000000000000000000000000000000000000000001046000000000000000000000000000000000000000000000000000000000000000000000000000000000000                                    LeadH000001129                              
E1261814891                     Best        SusanneM           023920011008        A                                                                                     2001100814211                                                                                                                                          
E2261814891           8418 YORKSHIRE LANE                                  NORTH CHARLESTONSC29406                   Assistant General ManagerHF0000013004000BYN                                                                                                                                                                
P1261814891 630798460          STATESC           02392022123000000159283000001132590000010400000000055283000000000000000000000000000000000000000000000010835000000000000000000000000000000000000000000000000000000000000000000000000000000000000               Assistant General ManagerH000001300                              
E1236294002                   Cuervo         DanielS           024020060530        A                                                                                     2012082014680                                                                                                                                          
E2236294002                29 Bens Branch                                        Alum CreekWV25003                    General Manager SalariedSF0044660004000BYN                                                                                                                                                                
P1236294002 630798460          STATEWV           02402022123000000171770000001398840000017177000000000000000000000000000000000000000000000000000000000008000000000000000000000000000000000000000000000000000000000000000000000000000000000000000                General Manager SalariedS004466000                              
E1405764767                Palazzolo        AnthonyD           058620020414        A                                                                                     2002041414924                                                                                                                                          
E2405764767                                                                                                          Assistant General ManagerHF0000012114000BYN                                                                                                                                                                
P1405764767 630798460          STATEKY           05862022123000000106089000000776240000009688000000009209000000000000000000000000000000000000000000000008507000000000000000000000000000000000000000000000000000000000000000000000000000000000000               Assistant General ManagerH000001211                              
E1413535726                   Bryant          AutryR           066320060521        A                                                                                     2006052116445                                                                                                                                          
E2413535726                325 RUDOLPH ST                                       SPRINGFIELDTN37172                    General Manager SalariedSF0042582644000BYN                                                                                                                                                                
P1413535726 630798460          STATETN           06632022123000000163780000001402220000016378000000000000000000000000000000000000000000000000000000000008000000000000000000000000000000000000000000000000000000000000000000000000000000000000000                General Manager SalariedS004258264                              
E1247738533                   Waymer          JamesA           000120000528        A                                                                                     2000052816962                                                                                                                                          
E2247738533       1417 BLUE RIDGE TERRACE                                          COLUMBIASC29203                     Field Project Team LeadSF0048000004000BYN                                                                                                                                                                
P1247738533 630798460          STATEAL           00012022123000000184616000001291420000018461600000000000000000000000000000000000000000000000000000000008000000000000000000000000000000000000000000000000000000000000000000000000000000000000000                 Field Project Team LeadS004800000                              
E1085708219                      Ott          DavidJ           040320000818        A                                                                                     2000081818464                                                                                                                                          
E2085708219           8624 HORNWOOD COURT                                         CHARLOTTENC28215                    General Manager SalariedSF0051818234000BYN                                                                                                                                                                
P1085708219 630798460          STATENC           04032022123000000199300000001611820000019930000000000000000000000000000000000000000000000000000000000008000000000000000000000000000000000000000000000000000000000000000000000000000000000000000                General Manager SalariedS005181823                              
E1417113590                 Hardyman         DeannaJ           029920011126        A                                                                                     2001112619592                                                                                                                                          
E2417113590          340 COUNTY ROAD 1312                                           CULLMANAL35058                                  Co ManagerHF0000012334000BNN                                                                                                                                                                
P1417113590 630798460          STATEAL           02992022123000000116302000000991580000009864000000017662000000000000000000000000000000000000000000000008955000000000000000000000000000000000000000000000000000000000000000000000000000000000000                              Co ManagerH000001233                              
E1107448347                Schiffler        RichardJ           210219921109        A                                                                                     1992110920257                                                                                                                                          
E2107448347               1539 EMMONS AVE                                            DAYTONOH45410                          Buy Back AssociateHF0000013404000BNN                                                                                                                                                                
P1107448347 814335486          STATEOH           21022022123000000081780000000594070000008178000000000000000000000000000000000000000000000000000000000006103000000000000000000000000000000000000000000000000000000000000000000000000000000000000                      Buy Back AssociateH000001340                              
E1151680100                     Roca        IgnacioR           210219900904        A                                                                                     1990090420265                                                                                                                                          
E2151680100          4035 WEYBRIGHT COURT                                         KETTERINGOH45440                          Buy Back AssociateHP0000011842000BNN                                                                                                                                                                
P1151680100 814335486          STATEOH           21022022123000000030252000000270490000003025200000000000000000000000000000000000000000000000000000000002555000000000000000000000000000000000000000000000000000000000000000000000000000000000000                      Buy Back AssociateH000001184                              
E1272865126                     Fent        ShannonE           210220051030        A                                                                                     2005103020361                                                                                                                                          
E2272865126                8623 ADAMS RD.                                     HUBER HEIGHTSOH45424                          Buy Back AssociateHF0000010324000BYN                                                                                                                                                                
P1272865126 814335486          STATEOH           21022022123000000077431000000635470000007743100000000000000000000000000000000000000000000000000000000007503000000000000000000000000000000000000000000000000000000000000000000000000000000000000                      Buy Back AssociateH000001032                              
E1300443313                   Ireton          DavidA           031319880621        A                                                                                     1988062120713                                                                                                                                          
E2300443313            455 FORREST AVENUE                   APARTMENT 7              DAYTONOH45405                                  Co ManagerHF0000012204000BYN                                                                                                                                                                
P1300443313 630798460          STATEOH           03132022123000000115076000000928490000009760000000017476000000000000000000000000000000000000000000000008955000000000000000000000000000000000000000000000000000000000000000000000000000000000000                              Co ManagerH000001220                              
E1603385675                 Alibutod         HoraceM           031620000117        A                                                                                     2000011721317                                                                                                                                          
E2603385675         1120 southwinds drive                                       PORT ORANGEFL32129                                  Co ManagerHF0000012104000BYN                                                                                                                                                                
P1603385675 630798460          STATEFL           03162022123000000077707000000648540000007770700000000000000000000000000000000000000000000000000000000006422000000000000000000000000000000000000000000000000000000000000000000000000000000000000                              Co ManagerH000001210                              
E1222383118                 Mitchell         MiriamU           032820000403        A                                                                                     2000040322835                                                                                                                                          
E2222383118               408 LINCOLN AVE                                        VALPARAISOFL32580                                 Book SellerHP0000011092000BNN                                                                                                                                                                
P1222383118 630798460          STATEFL           03282022123000000059265000000547320000005926500000000000000000000000000000000000000000000000000000000005344000000000000000000000000000000000000000000000000000000000000000000000000000000000000                             Book SellerH000001109                              
E1435633550                    Felts    ChristopherP           075020050510        A                                                                                     2005051023022                                                                                                                                          
E2435633550               513 BOYD CIRCLE                                         NICEVILLEFL32578                    General Manager SalariedSF0050794794000BYN                                                                                                                                                                
P1435633550 630798460          STATEFL           07502022123000000195364000001525450000019536400000000000000000000000000000000000000000000000000000000008000000000000000000000000000000000000000000000000000000000000000000000000000000000000000                General Manager SalariedS005079479                              
E1437253556                   Fisher          TammyL           210319980206        A                                                                                     2000061124616                                                                                                                                          
E2437253556                                                                                                                          AssociateHP905.00000000000012000BNN                                                                                                                                                                
P1437253556 814335486          STATENC           21032022123000000011783000000098810000001178300000000000000000000000000000000000000000000000000000000001302000000000000000000000000000000000000000000000000000000000000000000000000000000000000                               AssociateH905.0000000000001                              
E1262929271                   Mobley         LouiseY           038719951114        A                                                                                     1995111426481                                                                                                                                          
E2262929271              1411 SE 24TH AVE                                        CAPE CORALFL33990                                 Book SellerHP0000012302000BNN                                                                                                                                                                
P1262929271 630798460          STATEFL           03872022123000000050873000000457700000005087300000000000000000000000000000000000000000000000000000000004136000000000000000000000000000000000000000000000000000000000000000000000000000000000000                             Book SellerH000001230                              
E1429335037                   Warren         StevenE           039019960610        A                                                                                     1996061026844                                                                                                                                          
E2429335037           2117 NORTH I STREET                                        FORT SMITHAR72901                                 Book SellerHF0000012254000BYN                                                                                                                                                                
P1429335037 630798460          STATEAR           03902022123000000086044000000681120000008604400000000000000000000000000000000000000000000000000000000007024000000000000000000000000000000000000000000000000000000000000000000000000000000000000                             Book SellerH000001225                              
E1430670717                    Price          CarolL           039020050424        A                                                                                     2005042426921                                                                                                                                          
E2430670717      3704 HEATHER RIDGE COURT                                        FORT SMITHAR72903                                 Book SellerHP0000011432000BNN                                                                                                                                                                
P1430670717 630798460          STATEAR           03902022123000000010699000000091310000001069900000000000000000000000000000000000000000000000000000000000936000000000000000000000000000000000000000000000000000000000000000000000000000000000000                             Book SellerH000001143                              
E1543868540                    Craig        Charie'L           040320040927        A                                                                                     2004092728669                                                                                                                                          
E2543868540            1610 FAIRFIELD DR.                                          GASTONIANC28054                                        LeadHF0000010754000BYN                                                                                                                                                                
P1543868540 630798460          STATENC           04032022123000000074143000000608400000007414300000000000000000000000000000000000000000000000000000000006897000000000000000000000000000000000000000000000000000000000000000000000000000000000000                                    LeadH000001075                              
E1424151939                   Carter         LesleyL           000119980804        A                                                                                     1998080428994                                                                                                                                          
E2424151939     3155 FRENCH ROAD APT. 168                                          BEAUMONTTX77706                            District ManagerSF0052000004000BNN                                                                                                                                                                
P1424151939 630798460          STATEAL           00012022123000000200000000001616350000020000000000000000000000000000000000000000000000000000000000000008000000000000000000000000000000000000000000000000000000000000000000000000000000000000000                        District ManagerS005200000                              
E1434512308                   Lanier        KennethB           042320020913        A                                                                                     2009082730177                                                                                                                                          
E2434512308   4020 GOURRIER AVENUE, APT 1                                       BATON ROUGELA70808                    General Manager SalariedSF0038409684000BYN                                                                                                                                                                
P1434512308 630798460          STATELA           04232022123000000147730000001223710000014773000000000000000000000000000000000000000000000000000000000008000000000000000000000000000000000000000000000000000000000000000000000000000000000000000                General Manager SalariedS003840968                              
E1225452533                   Gulley        ZacharyA           037820010507        A                                                                                     2005070830799                                                                                                                                          
E2225452533        1086 BOYERS ROAD APT 2                                      HARRISONBURGVA22801                    General Manager SalariedSF0052000004000BYN                                                                                                                                                                
P1225452533 630798460          STATEVA           03782022123000000200000000001503810000020000000000000000000000000000000000000000000000000000000000000008000000000000000000000000000000000000000000000000000000000000000000000000000000000000000                General Manager SalariedS005200000                              
E1321788487                  Gibbons        LindseyN           044520051205        A                                                                                     2019111133045                                                                                                                                          
E2321788487    100 TERRACE TRAIL APT. 816                                        HUNTSVILLEAL35801                                        LeadHF0000009184000BYN                                                                                                                                                                
P1321788487 630798460          STATEAL           04452022123000000052354000000304930000005235400000000000000000000000000000000000000000000000000000000005703000000000000000000000000000000000000000000000000000000000000000000000000000000000000                                    LeadH000000918                              
E1424333407                  Boucher      ElizabethG           047120030707        A                                                                                     2003070733434                                                                                                                                          
E2424333407        620 JULIA STREET APT D                                        HUNTSVILLEAL35816                    General Manager SalariedSF0051295314000BYN                                                                                                                                                                
P1424333407 630798460          STATETN           04712022123000000197290000001319900000019729000000000000000000000000000000000000000000000000000000000008000000000000000000000000000000000000000000000000000000000000000000000000000000000000000                General Manager SalariedS005129531                              
E1418967262                   French        CandaceS           044519890913        A                                                                                     1989091333912                                                                                                                                          
E2418967262             3816 PRICE CIRCLE                                        HUNTSVILLEAL35805                                        LeadHF1019.99999999999994000BYN                                                                                                                                                                
P1418967262 630798460          STATEAL           04452022123000000074256000000506760000007425600000000000000000000000000000000000000000000000000000000007280000000000000000000000000000000000000000000000000000000000000000000000000000000000000                                    LeadH1019.9999999999999                              
E1427358199                  Simpson        Felicia            047620021118        A                                                                                     2002111835265                                                                                                                                          
E2427358199          1588 WINGFIELD DRIVE                                           JACKSONMS39204                                 Book SellerHP0000007752000BNN                                                                                                                                                                
P1427358199 630798460          STATEMS           04762022123000000002961000000027340000000296100000000000000000000000000000000000000000000000000000000000382000000000000000000000000000000000000000000000000000000000000000000000000000000000000                             Book SellerH000000775                              
E1409291472                 O'Connor         SandraK           048719900823        A                                                                                     1990082335960                                                                                                                                          
E2409291472            385 OLDFIELD DRIVE                                       ORANGE PARKFL32003                    General Manager SalariedSF0053557504000BYN                                                                                                                                                                
P1409291472 630798460          STATEFL           04872022123000000205990000001443880000020599000000000000000000000000000000000000000000000000000000000008000000000000000000000000000000000000000000000000000000000000000000000000000000000000000                General Manager SalariedS005355750                              
E1260493809                    Smith     BernedetteA           048620051114        A                                                                                     2005111436405                                                                                                                                          
E2260493809       2268 MAYPORT RD LOT 121                                      JacksonvilleFL32233                                 Book SellerHP1019.99999999999992000BNN                                                                                                                                                                
P1260493809 630798460          STATEFL           04862022123000000017411000000139980000001741100000000000000000000000000000000000000000000000000000000001707000000000000000000000000000000000000000000000000000000000000000000000000000000000000                             Book SellerH1019.9999999999999                              
E1010461321                    Brady          RobinR           048720050529        A                                                                                     2005052936797                                                                                                                                          
E2010461321       2709 OAKDALE DRIVE WEST                                       ORANGE PARKFL32073                                        LeadHF0000011004000BYN                                                                                                                                                                
P1010461321 630798460          STATEFL           04872022123000000082632000000553660000008263200000000000000000000000000000000000000000000000000000000007512000000000000000000000000000000000000000000000000000000000000000000000000000000000000                                    LeadH000001100                              
E1227433926                  Johnson         JeremyP           048720041215        A                                                                                     2004121536872                                                                                                                                          
E2227433926               1863 WELLS ROAD                       APT 118         ORANGE PARKFL32073                   Assistant General ManagerHF0000014304000BYN                                                                                                                                                                
P1227433926 630798460          STATEFL           04872022123000000138295000001216850000011440000000023895000000000000000000000000000000000000000000000009114000000000000000000000000000000000000000000000000000000000000000000000000000000000000               Assistant General ManagerH000001430                              
E1228414992                   Reaves          KeithG           023020000927        A                                                                                     2000092736877                                                                                                                                          
E2228414992       1863 WELLS ROAD APT 118                                       ORANGE PARKFL32073                    General Manager SalariedSF0043572534000BYN                                                                                                                                                                
P1228414992 630798460          STATEGA           02302022123000000167586000001275860000016758600000000000000000000000000000000000000000000000000000000008000000000000000000000000000000000000000000000000000000000000000000000000000000000000000                General Manager SalariedS004357253                              
E1229969027                 Randolph          DonnaS           051119951009        A                                                                                     1995100938558                                                                                                                                          
E2229969027            1310 LOWELL STREET                                      JOHNSON CITYTN37601                                        LeadHF0000011514000BYN                                                                                                                                                                
P1229969027 630798460          STATETN           05112022123000000082216000000495700000008221600000000000000000000000000000000000000000000000000000000007143000000000000000000000000000000000000000000000000000000000000000000000000000000000000                                    LeadH000001151                              
E1409215631                  Hembree           DawnB           052419860505        A                                                                                     1986050538655                                                                                                                                          
E2409215631                765 LEBANON RD                                         KINGSPORTTN37663                    General Manager SalariedSF0048606244000BYN                                                                                                                                                                
P1409215631 630798460          STATETN           05242022123000000186948000000964260000018694800000000000000000000000000000000000000000000000000000000008000000000000000000000000000000000000000000000000000000000000000000000000000000000000000                General Manager SalariedS004860624                              
E1409572268                     Sims           AmieM           051120050508        A                                                                                     2005050838670                                                                                                                                          
E2409572268      2610 plymouth rd apt 408                                      JOHNSON CITYTN37601                                 Book SellerHP0000009182000BNN                                                                                                                                                                
P1409572268 630798460          STATETN           05112022123000000047709000000440590000004770900000000000000000000000000000000000000000000000000000000005197000000000000000000000000000000000000000000000000000000000000000000000000000000000000                             Book SellerH000000918                              
E1413451585                  Thacker         TriciaN           052419900111        A                                                                                     1990011138765                                                                                                                                          
E2413451585             246 FEDDERSON ST.                                         KINGSPORTTN37660                   Assistant General ManagerHF0000015134000BYN                                                                                                                                                                
P1413451585 630798460          STATETN           05242022123000000129051000000993030000012104000000008011000000000000000000000000000000000000000000000008353000000000000000000000000000000000000000000000000000000000000000000000000000000000000               Assistant General ManagerH000001513                              
E1438674889                Faircloth         TravisL           056920030506        A                                                                                     2003050641272                                                                                                                                          
E2438674889                    129 LOUISA                                         LAFAYETTELA70506                    General Manager SalariedSF0051636984000BYN                                                                                                                                                                
P1438674889 630798460          STATELA           05692022123000000198604000001384520000019860400000000000000000000000000000000000000000000000000000000008000000000000000000000000000000000000000000000000000000000000000000000000000000000000000                General Manager SalariedS005163698                              
E1565764483                   Forbes         Virgil            013419971227        A                                                                                     1997122742338                                                                                                                                          
E2565764483                                                                                                                        Book SellerHP0000012782000BNN                                                                                                                                                                
P1565764483 630798460          STATEMD           01342022123000000054468000000471510000005446800000000000000000000000000000000000000000000000000000000004262000000000000000000000000000000000000000000000000000000000000000000000000000000000000                             Book SellerH000001278                              
E1412552066                   Demers      ElizabethA           028720030609        A                                                                                     2003060943453                                                                                                                                          
E2412552066   3682 MCCAIN PARK DR.  APT.R                                 NORTH LITTLE ROCKAR72116                                 Book SellerHF0000015064000BYN                                                                                                                                                                
P1412552066 630798460          STATEAR           02872022123000000138823000000772580000012048000000018343000000000000000000000000000000000000000000000008812000000000000000000000000000000000000000000000000000000000000000000000000000000000000                             Book SellerH000001506                              
E1419684679                     Houk         PamelaW           028719961029        A                                                                                     1996102943458                                                                                                                                          
E2419684679             32 TENNYSON COURT                                     N LITTLE ROCKAR72116                                 Book SellerHP0000011472000BNN                                                                                                                                                                
P1419684679 630798460          STATEAR           02872022123000000013420000000103800000001342000000000000000000000000000000000000000000000000000000000001170000000000000000000000000000000000000000000000000000000000000000000000000000000000000                             Book SellerH000001147                              
E1430985512                    Murry         EdwardR           028719950620        A                                                                                     2001040543598                                                                                                                                          
E2430985512                    P O BOX 34                                            LONOKEAR72086                                        LeadHF0000012254000BYN                                                                                                                                                                
P1430985512 630798460          STATEAR           02872022123000000063553000000551870000006355300000000000000000000000000000000000000000000000000000000005188000000000000000000000000000000000000000000000000000000000000000000000000000000000000                                    LeadH000001225                              
E1465812856                   Rogers           KeriA           041319991017        A                                                                                     1999101744496                                                                                                                                          
E2465812856                                                                                                           General Manager SalariedSF0042509724000BYN                                                                                                                                                                
P1465812856 630798460          STATETX           04132022123000000163498000001284540000016349800000000000000000000000000000000000000000000000000000000008000000000000000000000000000000000000000000000000000000000000000000000000000000000000000                General Manager SalariedS004250972                              
E1526951219                   Barber        TheresaL           094419990202        A                                                                                     1999020245733                                                                                                                                          
E2526951219            315 STERLING DRIVE                                     WARNER ROBINSGA31088                   Assistant General ManagerHF0000013474000BNN                                                                                                                                                                
P1526951219 630798460          STATEGA           09442022123000000129016000001085160000010776000000021256000000000000000000000000000000000000000000000009052000000000000000000000000000000000000000000000000000000000000000000000000000000000000               Assistant General ManagerH000001347                              
E1253335243                   Sheets           JudyA           059819920822        A                                                                                     1992082246330                                                                                                                                          
E2253335243               129 FEARS DRIVE                                           HAMPTONGA30228                                  Key HolderHF0000014354000BYN                                                                                                                                                                
P1253335243 630798460          STATEGA           05982022123000000116199000000898560000011480000000001399000000000000000000000000000000000000000000000008065000000000000000000000000000000000000000000000000000000000000000000000000000000000000                              Key HolderH000001435                              
E1254338372                   Agusti            SueB           059820020923        A                                                                                     2022010946339                                                                                                                                          
E2254338372                  370 ROSEHILL                                         MCDONOUGHGA30253                                   Lead CafeHP0000012722000BNN                                                                                                                                                                
P1254338372 630798460          STATEGA           05982022123000000104679000000925100000009981400000004865000000000000000000000000000000000000000000000008102000000000000000000000000000000000000000000000000000000000000000000000000000000000000                               Lead CafeH000001272                              
E1428591929                    Hurtt           AnnaL           061619980923        A                                                                                     1998092347193                                                                                                                                          
E2428591929                RT 1 BOX 179-A                                            DEKALBMS39328                    General Manager SalariedSF0040581394000BYN                                                                                                                                                                
P1428591929 630798460          STATEMS           06162022123000000156082000001039060000015608200000000000000000000000000000000000000000000000000000000008000000000000000000000000000000000000000000000000000000000000000000000000000000000000000                General Manager SalariedS004058139                              
E1371649619                 Blackmon        ShelleyA           096320040222        A                                                                                     2004022247547                                                                                                                                          
E2371649619              4680 KUMQUAT ST.                                             COCOAFL32926                    General Manager SalariedSF0046567884000BYN                                                                                                                                                                
P1371649619 630798460          STATENH           09632022123000000209108000001479710000020910800000000000000000000000000000000000000000000000000000000008000000000000000000000000000000000000000000000000000000000000000000000000000000000000000                General Manager SalariedS004656788                              
E1558891870                     Bobo         GloriaD           062220021020        A                                                                                     2002102047589                                                                                                                                          
E2558891870            5336 BREAKERS LANE                                       PATRICK AFBFL32925                   Assistant General ManagerHF0000014304000BNN                                                                                                                                                                
P1558891870 630798460          STATEFL           06222022123000000160367000001370370000011440000000045967000000000000000000000000000000000000000000000010143000000000000000000000000000000000000000000000000000000000000000000000000000000000000               Assistant General ManagerH000001430                              
E1421255219                   Appelt      StephanieL           041320030831        A                                                                                     2003083148076                                                                                                                                          
E2421255219              3204 RALSTON RD.                                            MOBILEAL36606                District Manager in TrainingHF0000010824000BYN                                                                                                                                                                
P1421255219 630798460          STATETX           04132022123000000108519000000823250000008656000000021959000000000000000000000000000000000000000000000009353000000000000000000000000000000000000000000000000000000000000000000000000000000000000            District Manager in TrainingH000001082                              
E1422941736                     Fore          Aaron            062620000822        A                                                                                     2014031848646                                                                                                                                          
E2422941736            2311 Howell Avenue                                            MOBILEAL36606                                 Book SellerHP0000008402000BNN                                                                                                                                                                
P1422941736 630798460          STATEAL           06262022123000000042924000000383570000004292400000000000000000000000000000000000000000000000000000000005110000000000000000000000000000000000000000000000000000000000000000000000000000000000000                             Book SellerH000000840                              
E1137644673                   Postel         Alayne            065220050702        A                                                                                     2005070250411                                                                                                                                          
E2137644673                 607 LUTTIE RD                                      MYRTLE BEACHSC29588                                 Book SellerHF0000010334000BYN                                                                                                                                                                
P1137644673 630798460          STATESC           06522022123000000093146000000754030000008260900000010537000000000000000000000000000000000000000000000008677000000000000000000000000000000000000000000000000000000000000000000000000000000000000                             Book SellerH000001033                              
E1414926082                  Coleman        DarrellG           066319960125        A                                                                                     2000091752301                                                                                                                                          
E2414926082           1202 HOLLIS TERRACE                                        COTTONTOWNTN37048                                        LeadHF0000013864000BYN                                                                                                                                                                
P1414926082 630798460          STATETN           06632022123000000098406000000645810000009840600000000000000000000000000000000000000000000000000000000007100000000000000000000000000000000000000000000000000000000000000000000000000000000000000                                    LeadH000001386                              
E1432516421             Maddux-Jones       VirginiaL           213420010930        A                                                                                     2001093052375                                                                                                                                          
E2432516421       3815 andrew jackson way                                         hermitageTN37076                    General Manager SalariedSF0049150104000BYN                                                                                                                                                                
P1432516421 814335486          STATEAL           21342022123000000189038000001448580000018903800000000000000000000000000000000000000000000000000000000008000000000000000000000000000000000000000000000000000000000000000000000000000000000000000                General Manager SalariedS004915010                              
E1243769000                     Lane          LindaD           066920000716        A                                                                                     2000071652821                                                                                                                                          
E2243769000               410 GRANTHAM RD                                           NEWBERNNC28560                                 Book SellerHP0000011572000BNN                                                                                                                                                                
P1243769000 630798460          STATENC           06692022123000000043075000000387790000004307500000000000000000000000000000000000000000000000000000000003723000000000000000000000000000000000000000000000000000000000000000000000000000000000000                             Book SellerH000001157                              
E1220609608                    Hobbs           IrisI           071120000428        A                                                                                     2018102953438                                                                                                                                          
