UHDR 2022265202045BAM 401(K) FILE     214130092322            LAWSON              09042022    0917202209232022PAYROLL MANAGER               2059423737                                                                                                                                                                                                                                                                                                                                                                                                                                                                  
7120204542249871730    155517       REEVES         DRAVEN                                       1999052720210607        20220217        B 1825 SHADE AVE.                                             FLORENCE          AL35630     000000000 000000000 000000000 000000000 000000000 00000000000000000000000000000000000000000000000000000000000000000000000000027952000000335400000000000000000000000000000000000000000000000000000002795200002704000        0000R021199000 0  0000000 0000279520              M           DTREEVES011@GMAIL.COM                                                              00      
7120204542047933706    156070       LEAVITT        SYDNEY                                       1997100120210706                        B 7318 COURTWOOD STREET                                       FLORENCE          AL35634     000000000 000000000 000000000 000000000 000000000 00000000000000000000000000000000000000000000000000000000000000000000000000258076400009528900000000000000000000000000000000000000000000000000000025807640003883360        0040R134512000 0  0000000 0002580764              F           SYDNEY.N.LEAVITT@GMAIL.COM                                                         00      
7120204542339775730    158895       CAMPBELL       JORDAN                                       1992111520211206        20220404        B 809 CYPRESS MILL RD                                         FLORENCE          AL35630     000000000 000000000 000000000 000000000 000000000 00000000000000000000000000000000000000000000000000000000000000000000000000077973800003773800000000000000000000000000000000000000000000000000000007797380002808000        0000R055198000 0  0000000 0000779738              M           JCAMPBELL7747@GMAIL.COM                                                            00      
7120204529639171406    160977       NGUYEN         THUY                                         1988072520220705                        B 2175 ESTALINE DR                                            FLORENCE          AL35630     000000000 000000000 000000000 000000000 000000000 00000000000000000000000000000000000000000000000000000000000000000000000000057362300001544000000000000000000000000000000000000000000000000000000005736230003224000        0000R042408000 0  0000000 0000573623              F           HONGTHUY.NGUYEN1988@GMAIL.COM                                                      00      
7120204541815058406    78597        RICKS          PRECILLA                                     1969122119950918                        B 5221 CR 189                                                 FLORENCE          AL35633    A000002937 000000000 000000000 000000000 000000000 00000000000000000001000264602000250800000000000000000000000000000000000000288020500009122100000000000400000000000000000000000000000000000000000028802050003681600        0000R158640000 0  0000000 0002880205              F           PRECILLARICKS46@GMAIL.COM                                                          00      
7120204557106545506    82306        RACKARD        SONDRA                                       1964031219890826                        B 130 RIDGEWOOD DRIVE                                         MUSCLE SHOALS     AL35661    A000005098 000000000 000000000 000000000 000000000 00000000000000000001001709002001435200000000000000000000000000000000000001145514800195942200000000000100000000000000000000000000000000000000000114551480013145446        0000R152000000 1  0000000 0011455148              F                                                                                              00      
7120204541806499806    83580        STEGALL        TIMOTHY                                      1963041720040723                        B 202 TIMBERS PL                                              FLORENCE          AL35630    A000003229 000000000 000000000 000000000 000000000 00000000000000000000000000000000000000000000000000000000000000000000000000249750400007960900000000000500000000000000000000000000000000000000000024975040003242720        0000R155603000 0  0000000 0002497504              M           STEGALLT@AWBCINC.COM                                                               00      
7120204542484670997    83790        GILLESPIE      WILMA                                        1958110619780118                        B 505 SUMMERFIELD PLACE                                       FLORENCE          AL35630    A000002898 000000000 000000000 000000000 000000000 00000000000000000000000000002000210300000000000000000000000000000000000000278396600008917800000000000400000000000000000000000000000000000000000027839660003610880        0000R155449000 0  0000000 0002783966    20101018  F                                                                                             000      
7120204542178343106    138041       CLANTON        DEBBIE                                       1957052919870302                        B 108 TWIN OAKS CT                                            FLORENCE          AL35630    A000013674 000000000 000000000 000000000 000000000 00000000000000000000000000000000000000000000000000000000000000000000000000446876500025881300000000000600000000000000000000000000000000000000000044687650005823467        0000R152000000 0  0000000 0004468765              F           CLANTOND@BOOKSAMILLION.COM                                                         00      
7120204542233149430    156080       JOHNSON        MERKITHA                                     1974040520210712        20211103        B 2702 LITTLE JOHN ST                                         FLORENCE          AL35633     000000000 000000000 000000000 000000000 000000000 00000000000000000000000000000000000000000000000000000000000000000000000000000000000000000000000000000000000000000000000000000000000000000000000000000000008750000        0000R000000000 0  0000000 0000000000              F           KITHAJ5@GMAIL.COM                                                                  00      
7120204519456104606    156208       WHITE          DELIECA                                      1965042420210712                        B 342 RIDGECLIFF DR                                           FLORENCE          AL35634    A000014718 000000000 000000000 000000000 000000000 00000000000000000000000000000000000000000000000000000000000000000000000000489232700029789500000000000600000000000000000000000000000000000000000048923270006337929        0000R152000000 0  0000000 0004892327              F           DLADUE@HOTMAIL.COM                                                                 00      
7120204522541006906    81024        HOLDEN         DEBORAH                                      1980120620000814                        B 670 COUNTY ROAD 159                                         LEXINGTON         AL35648    A000004970 000000000 000000000 000000000 000000000 00000000000000000001001046402000265500000000000000000000000000000000000000329834500019877300000000000300000000000000000000000000000000000000000032983450004302477        0000R152000000 0  0000000 0003298345              F           HOLDEND@AWBCINC.COM                                                                00      
7120204541668441406    85688        WOMBLE         WILLIAM                                      1949062120061010                        B 8624 CR 94                                                  KILLEN            AL35645    A000000429 000000000 000000000 000000000 000000000 00000000000000000000000000000000000000000000000000000000000000000000000000161839900005704100000000000400000000000000000000000000000000000000000016183990002791360        0000R118132000 0  0000000 0001618399              M                                                                                              00      
7120204541092880906    119848       LAMPLEY        STEVEN                                       1958041020120312                        B 77 SWEETGUM LANE                                            TUSCUMBIA         AL35674     000000000 000000000 000000000 000000000 000000000 00000000000000000000000000000000000000000000000000000000000000000000000000265424000009048400000000000000000000000000000000000000000000000000000026542400002812160        0000R186024000 0  0000000 0002654240              M           SDLAMPLEY@YAHOO.COM                                                                00      
7120204537408589530    152913       JOURDAN        ROBERT                                       1989022420200817        20220209        B 1053 HOUSTON SMITH ROAD                                     IRON CITY         TN38463     000000000 000000000 000000000 000000000 000000000 00000000000000000000000000000000000000000000000000000000000000000000000000037038300002421500000000000000000000000000000000000000000000000000000003703830002718560        0000R026287000 0  0000000 0000370383              M           JOURDAN54@HOTMAIL.COM                                                              00      
7120204542053898330    158992       BECKMAN        DAKOTA                                       2001092120211210        20220722        B 1505 PINEHURST BLVD.                                        SHEFFIELD         AL35660     000000000 000000000 000000000 000000000 000000000 00000000000000000000000000000000000000000000000000000000000000000000000000140630100005850800000000000000000000000000000000000000000000000000000014063010002392000        0000R119473000 0  0000000 0001406301              M           FAIRYGRL30TONYA@AOL.COM                                                            00      
7120204564342052606    159857       WASHINGTON-ROBEKIARA                                        1994063020220328                        B 1505 PINEHURST BLVD                                         SHEFFIELD         AL35660    A000002287 000000000 000000000 000000000 000000000 00000000000000000000000000000000000000000000000000000000000000000000000000150296100006812200000000000400000000000000000000000000000000000000000015029610002964000        0000R099732000 0  0000000 0001502961              F           KIARA_WASH@YAHOO.COM                                                               00      
7120204542335352606    160048       BOOTH          NOLAN                                        1990082820220411                        B 470 HANSEL CT                                               FLORENCE          AL35630    A000001126 000000000 000000000 000000000 000000000 00000000000000000000000000000000000000000000000000000000000000000000000000147454800003855300000000000180000000000000000000000000000000000000000014745480003224000        0000R092014000 0  0000000 0001474548              M           NOLAN.M.BOOTH@GMAIL.COM                                                            00      
7120204542202109397    80213        GIFFORD        MARY                                         1961021819780510                        B 90 BRANDENBURG DRIVE                                        FLORENCE          AL35634     000000000 000000000 000000000 000000000 000000000 00000000000000000000000000000000000000000000000000000000000000000000000000045109200000686700000000000000000000000000000000000000000000000000000004510920002600000        0000R017769000 0  0000000 0000451092    20220531  F           KRAGIFF@COMCAST.NET                                                               000      
7120204507754199706    104557       WEEKS          CARL                                         1970062120081104                        B 1150 RAILSPLITTER ROAD                                      PHIL CAMPBELL     AL35581     000000000 000000000 000000000 000000000 000000000 00000000000000000000000000000000000000000000000000000000000000000000000000229847100011782100000000000000000000000000000000000000000000000000000022984710003151200        0000R146588000 0  0000000 0002298471              M           WEEKSGEN2@YAHOO.COM                                                                00      
7120204542135924806    119789       KIRCHOFF       NIKKI                                        1990070520120305                        B 208 SHALER DR                                               KILLEN            AL35645     000000000 000000000 000000000 000000000 000000000 00000000000000000000000000000000000000000000000000000000000000000000000000246764500007570100000000000000000000000000000000000000000000000000000024676450003660800        0020R136214000 0  0000000 0002467645              F           KIRCHOFFN@AWBCINC.COM                                                              00      
7120204542983940097    126684       COMES          EMILY                                        1992051020131022                        B 1798 DURWARD ST.                                            RUSSELLVILLE      AL35654     000000000 000000000 000000000 000000000 000000000 00000000000000000000000000000000000000000000000000000000000000000000000000159847800004048800000000000000000000000000000000000000000000000000000015984780003120000        0000R103782000 0  0000000 0001598478    20220213  F           EMILYCOMES@YAHOO.COM                                                              000      
7120204542135995606    127823       MULLIS         SAMANTHA                                     1990050720140203                        B 1280 COUNTY ROAD 170                                        KILLEN            AL35645    A000002368 000000000 000000000 000000000 000000000 00000000000000000000000000000000000000000000000000000000000000000000000000230449100008695400000000000400000000000000000000000000000000000000000023044910003076320        0000R151140000 0  0000000 0002304491              F           SAMBOW2008@AOL.COM                                                                 00      
7120204531960834306    150377       ZACHMAN        BRANDY                                       1973062420190930                        B 191 ALLEN CIRCLE                                            TUSCUMBIA         AL35674     000000000Q000002807 000000000 000000000 000000000 00000000000000000000000000000000000000000000000000000000000000000000000000208384300006417900000000000000000000000000000000000000000000000000000020838430003082560        0050R137441000 0  0000000 0002083843              F           BRANDYLEEZ2003@YAHOO.COM                                                           00      
7120204559041818997    150457       COX            MICAH                                        1994031520191007                        B 17675 DEMENT ROAD                                           ATHENS            AL35611     000000000 000000000 000000000 000000000 000000000 00000000000000000000000000000000000000000000000000000000000000000000000000082360600001683900000000000300000000000000000000000000000000000000000008236060004160000        0000R040109000 0  0000000 0000823606    20220711  M           MICAHCOX256@GMAIL.COM                                                             000      
7120204542343801606    150463       BAKER          SYDNEY                                       1995062020191021                        B 1515 RIDGE AVENUE                                           FLORENCE          AL35630     000000000Q000003133 000000000 000000000 000000000 00000000000000000000000000000000000000000000000000000000000000000000000000320575100010305800000000000000000000000000000000000000000000000000000032057510004284800        0040R151254000 0  0000000 0003205751              F           SYDBAKE13@GMAIL.COM                                                                00      
7120204562319852630    151717       BONELLI        CHRISTIAN                                    2000060620191202        20210806        B 239 MINNISHAHA ST                                           FLORENCE          AL35630     000000000 000000000 000000000 000000000 000000000 00000000000000000000000000000000000000000000000000000000000000000000000000000000000000000000000000000000000000000000000000000000000000000000000000000000002812160        0000R000000000 0  0000000 0000000000              M           MRCHRISTIANBONELLI@GMAIL.COM                                                       00      
7120204561984287906    155519       FINKELSTEIN    SCOTT                                        1995092120210601                        B 112 HEATHROW CT.                                            FLORENCE          AL35633    A000006768 000000000 000000000 000000000 000000000 00000000000000000000000000000000000000000000000000000000000000000000000000334453000009993900000000000800000000000000000000000000000000000000000033445300004031040        0000R163689000 0  0000000 0003344530              M           FINKELSTEINS@AWBCINC.COM                                                           00      
7120204542433118430    156022       LOVELL         SARAH                                        1986052820210628        20220115        B 443 MAYFIELD DR                                             CHEROKEE          AL35616     000000000 000000000 000000000 000000000 000000000 00000000000000000000000000000000000000000000000000000000000000000000000000020191000000352700000000000000000000000000000000000000000000000000000002019100002600000        0000R015298000 0  0000000 0000201910              F           SLOVELL345@GMAIL.COM                                                               00      
7120204531568912506    78840        KENNEMUR       CINDY                                        1961010919941205                        B 2251 HELTON DR APT O - 2                                    FLORENCE          AL35630    A000002385 000000000 000000000 000000000 000000000 00000000000000000000000000000000000000000000000000000000000000000000000000233302000010395600000000000400000000000000000000000000000000000000000023330200003161600        0000R149957000 0  0000000 0002333020              F                                                                                              00      
7120204541833763530    102418       BEE            MATTHEW                                      1989082420080617        20210716        B 1000 COUNTY ROAD 390                                        LEXINGTON         AL35648     000000000 000000000 000000000 000000000 000000000 00000000000000000000000000000000000000000000000000000000000000000000000000000000000000000000000000000000000000000000000000000000000000000000000000000000002358720        0000R000000000 0  0000000 0000000000    20200629  M           GENESISZX08@GMAIL.COM                                                              00      
7120204541611719406    153345       HUNT           JASON                                        1978120520201009                        B 5650 MIDDLE CYPRESS ROAD                                    IRON CITY         TN38463     000000000 000000000 000000000 000000000 000000000 00000000000000000000000000000000000000000000000000000000000000000000000000141257600003370500000000000000000000000000000000000000000000000000000014125760002496000        0000R119832000 0  0000000 0001412576              M           JASONBRADLEYHUNT@GMAIL.COM                                                         00      
7120204542987347106    156834       ABERNATHY      JUSTIN                                       1994041520210830                        B 130 RIVER RD                  P103                          MUSCLE SHOALS     AL35661     000000000 000000000 000000000 000000000 000000000 00000000000000000000000000000000000000000000000000000000000000000000000000299060400014798700000000000000000000000000000000000000000000000000000029906040003515200        0000R166531000 0  0000000 0002990604              M           JUSTINA734@GMAIL.COM                                                               00      
7120204541937854006    157428       ELLIOTT        THOMAS                                       1991011320211008                        B 554 MALONE CIRCLE                                           FLORENCE          AL35630     000000000 000000000 000000000 000000000 000000000 00000000000000000000000000000000000000000000000000000000000000000000000000130246700005632200000000000000000000000000000000000000000000000000000013024670002545920        0000R103201000 0  0000000 0001302467              M           BENAGEAELLIOTT@GMAIL.COM                                                           00      
7120204541147319230    159639       PEEVYHOUSE     JESSICA                                      1985043020220228        20220720        B 1216 WASHINGTON ST                                          COLLINWOOD        TN38459     000000000 000000000 000000000 000000000 000000000 00000000000000000000000000000000000000000000000000000000000000000000000000059748000000000000000000000000000000000000000000000000000000000000000005974800002652000        0000R046860000 0  0000000 0000597480              F           JESSYKA.PEEVYHOUSE41@GMAIL.COM                                                     00      
7120204542731863930    160069       JOHNSON        RODNEY                                       1978022820220411        20220906        B 124 COVENANT COURT DRIVE APT.                               TUSCUMBIA         AL35674     000000000 000000000 000000000 000000000 000000000 00000000000000000000000000000000000000000000000000000000000000000000000000050623000001894000000000000000000000000000000000000000000000000000000005062300001560000        0000R032486000 0  0000000 0000506230              M           RODNEY.JOHNSON1978@GMAIL.COM                                                       00      
7120204525906765106    78571        WRIGHT         CINDY                                        1962120820001128                        B 115 WHISPERWOOD TRAIL                                       FLORENCE          AL35633    A000004829 000000000 000000000 000000000 000000000 00000000000000000001000951902001059600000000000000000000000000000000000000501726800036402700000000000400000000000000000000000000000000000000000050172680005601440        0000R171017000 0  0000000 0005017268              F           WRIGHTC@AWBCINC.COM                                                                00      
7120204530072649506    132987       SMITH          RICHARD                                      1965083120150601                        B 694 RIDGECLIFF DR                                           FLORENCE          AL35634    A000032569 000000000 000000000 000000000 000000000 00000000000000000000000000000000000000000000000000000000000000000000000002162375700660927700000000000400000000000000000000000000000000000000000216237570020979127        0000R152000000 1  0000000 0021623757              M                                                                                              00      
7120204541708920030    77473        BASS           DONNA                                        1964122019980126        20220214        B 1175 CREEK ST                                               CHEROKEE          AL35616     000000000 000000000 000000000 000000000 000000000 00000000000000000000000000000000000000000000000000000000000000000000000000043835700000566600000000000000000000000000000000000000000000000000000004383570003342560        0000R026878000 0  0000000 0000438357    19981216  F                                                                                              00      
7120204541994967906    77748        TIDWELL        JERRY                                        1959083120010530                        B 2873 COOK LANE                                              TUSCUMBIA         AL35674     000000000 000000000 000000000 000000000 000000000 00000000000000000000000000000000000000000000000000000000000000000000000000203584800015124400000000000000000000000000000000000000000000000000000020358480002664480        0000R147772000 0  0000000 0002035848              M                                                                                              00      
7120204526665215806    80346        DARTY          FLOYD                                        1971082920060213                        B 17451 CO ROAD 14                                            WATERLOO          AL35677     000000000 000000000 000000000 000000000 000000000 00000000000000000000000000000000000000000000000000000000000000000000000000218308000007111800000000000000000000000000000000000000000000000000000021830800003367520        0000R139747000 0  0000000 0002183080              M                                                                                              00      
7120204541817469130    83597        ALLEN          MELISSA                                      1981061119990927        20220404        B 335 SPRING ROAD                                             TUSCUMBIA         AL35674     000000000 000000000 000000000 000000000 000000000 00000000000000000000000000000000000000000000000000000000000000000000000000112254400002392000000000000000000000000000000000000000000000000000000011225440004187040        0000R053851000 0  0000000 0001122544              F           ALLENM@AWBCINC.COM                                                                 00      
7120204541943944530    124122       LAMPLEY        JASON                                        1994110920130401        20210925        B 77 SWEETGUM LANE                                            TUSCUMBIA         AL35674     000000000 000000000 000000000 000000000 000000000 00000000000000000000000000000000000000000000000000000000000000000000000000000000000000000000000000000000000000000000000000000000000000000000000000000000002425280        0000R000000000 0  0000000 0000000000    20200102  M           STEVEN@STEVENDAVIDLAMPLEY.COM                                                      00      
7120204556383024597    151013       MCCARTHY       JOSHUA                                       1985010820191028                        B 950 BROOKHILL DRIVE                                         KILLEN            AL35645     000000000 000000000 000000000 000000000 000000000 00000000000000000000000000000000000000000000000000000000000000000000000000187476300006130800000000000000000000000000000000000000000000000000000018747630004500000        0000R084000000 0  0000000 0001874763    20220425  M           MCCARTHYJOSHUA@YAHOO.COM                                                          000      
7120204542192259606    78309        DAVIS          ARLENE                                       1957122619900307                        B P.O. BOX 3491                                               MUSCLE SHOALS     AL35662     000000000 000000000 000000000 000000000 000000000 00000000000000000000000000000000000000000000000000000000000000000000000000131699300007695000000000000000000000000000000000000000000000000000000013169930001505920        0000R087896000 0  0000000 0001316993              F           ARLENE.DAVIS2600@COMCAST.NET                                                       00      
7120204541680263206    78453        BLALOCK        RICHARD                                      1955052319980209                        B 370 LEONA DRIVE                                             FLORENCE          AL35630     000000000 000000000 000000000 000000000 000000000 00000000000000000000000000000000000000000000000000000000000000000000000000137581900003060700000000000000000000000000000000000000000000000000000013758190002354560        0000R120106000 0  0000000 0001375819              M                                                                                              00      
7120204542306488706    78526        GRAHAM         SHAWN                                        1967052819981005                        B 1421 HARRISON AVENUE N.W.                                   RUSSELLVILLE      AL35653    A000001844 000000000 000000000 000000000 000000000 00000000000000000000000000000000000000000000000000000000000000000000000000179788800005772700000000000400000000000000000000000000000000000000000017978880002421120        0000R150921000 0  0000000 0001797888              M                                                                                              00      
7120204542482450206    79998        BROWN          JOY                                          1956040419950919                        B 117 PICKENS AVE                                             FLORENCE          AL35630    A000001983 000000000 000000000 000000000 000000000 00000000000000000000000000000000000000000000000000000000000000000000000000192204100006145700000000000400000000000000000000000000000000000000000019220410002602080        0000R150199000 0  0000000 0001922041              F                                                                                              00      
7120204542096926730    81861        SCOTT          LYNDON                                       1960100819950822        20220517        B 1503 W. MANNING DRIVE         APARTMENT 7-A                 SHEFFIELD         AL35660     000000000 000000000 000000000 000000000 000000000 00000000000000000000000000000000000000000000000000000000000000000000000000036094700000745000000000000000000000000000000000000000000000000000000003609470002288000        0000R032349000 0  0000000 0000360947    20170619  M           LSCOTT1503@COMCAST.NET                                                             00      
7120204541408596806    82520        ELLIS          DANIEL                                       1959040719980921                        B 314 LOUISE ST.                                              FLORENCE          AL35633    A000003366 000000000 000000000 000000000 000000000 00000000000000000000000000000000000000000000000000000000000000000000000000260299800007625900000000000500000000000000000000000000000000000000000026029980003511040        0000R151029000 0  0000000 0002602998              M                                                                                              00      
7120204555035799206    83819        LOPEZ          DAVID                                        1960101320040202                        B 105 DUNCAN AVE                                              KILLEN            AL35645    A000002961 000000000 000000000 000000000 000000000 00000000000000000000000000002000113600000000000000000000000000000000000000225435600007465400000000000500000000000000000000000000000000000000000022543560003140800        0000R146498000 0  0000000 0002254356              M                                                                                              00      
7120204541796950806    88298        HOOPER         TERRY                                        1958011120070424                        B 2166 BELVIEW RD LOT 24                                      FLORENCE          AL35630    A000000900 000000000 000000000 000000000 000000000 00000000000000000000000000000000000000000000000000000000000000000000000000179319900005695700000000000200000000000000000000000000000000000000000017931990002356640        0000R154775000 0  0000000 0001793199              F                                                                                              00      
7120204541731284530    104417       RICHARDSON     NAFISA                                       1988080420081029        20220802        B 512 S. CONNER ST.                                           FLORENCE          AL35630     000000000 000000000 000000000 000000000 000000000 00000000000000000000000000000000000000000000000000000000000000000000000000121753500002780800000000000000000000000000000000000000000000000000000012175350003120000        0000R079308000 0  0000000 0001217535    20220228  F           FISACRICH@GMAIL.COM                                                                00      
7120204533278928206    111838       RICH           VICTOR                                       1982092420100712                        B 4013 MILL BRANCH RD                                         IRON CITY         TN38463    A000002461Q000001230 000000000 000000000 000000000 00000000000000000001000140302000253000000000000000000000000000000000000000236406200007670500000000000400000000000000000000000000000000000000000023640620003421600        0020R141316000 0  0000000 0002364062              M           KEEFY21@EXCITE.COM                                                                 00      
7120204541784692006    111966       GASQUE         ROGER                                        1956042620100721                        B 514 SAINT LOUIS AVE.                                        SHEFFIELD         AL35660     000000000 000000000 000000000 000000000 000000000 00000000000000000000000000000000000000000000000000000000000000000000000000110054100003534500000000000000000000000000000000000000000000000000000011005410001251120        0000R089496000 0  0000000 0001100541              M           ROGERPACE56@GMAIL.COM                                                              00      
7120204542441170897    133171       SMITH          BRENDON                                      1994031120150610                        B 6750 HIGHWAY 20                                             FLORENCE          AL35633    A000001666 000000000 000000000 000000000 000000000 00000000000000000000000000000000000000000000000000000000000000000000000000172025100005549400000000000400000000000000000000000000000000000000000017202510002452320        0000R143285000 0  0000000 0001720251    20160620  M                                                                                             000      
7120204542019908497    78290        LOVE           STACY                                        1977050720000117                        B 1550 HELTON DR. APT. F3                                     FLORENCE          AL35630     000000000 000000000 000000000 000000000 000000000 00000000000000000000000000000000000000000000000000000000000000000000000000180123800006258800000000000000000000000000000000000000000000000000000018012380003479840        0000R104464000 0  0000000 0001801238    20220321  F           SLLOVE459@GMAIL.COM                                                               000      
7120204542096199806    78297        CASTILE        CECILIA                                      1960102519880708                        B 246 N NEW CASTLE DR                                         FLORENCE          AL35633    A000002329 000000000 000000000 000000000 000000000 00000000000000000000000000000000000000000000000000000000000000000000000000232190200007877600000000000400000000000000000000000000000000000000000023219020003005600        0000R154272000 0  0000000 0002321902              F                                                                                              00      
7120204541604645497    80476        CONLEY         HOWARD                                       1963092620020318                        B 4135 COUNTY ROAD 200                                        FLORENCE          AL35633     000000000 000000000 000000000 000000000 000000000 00000000000000000000000000000000000000000000000000000000000000000000000000181477000007793200000000000000000000000000000000000000000000000000000018147700002849600        0000R128454000 0  0000000 0001814770    20070430  M                                                                                             000      
7120204542221352297    87216        STUTTS         NICHOLAS                                     1985100120070125                        B 1977 COUNTY ROAD 363                                        LEXINGTON         AL35648     000000000 000000000 000000000 000000000 000000000 00000000000000000000000000000000000000000000000000000000000000000000000000070632800002705800000000000000000000000000000000000000000000000000000007063280002704000        0000R052239000 0  0000000 0000706328    20220606  M           REDFACTORY8@GMAIL.COM                                                             000      
7120204542217525530    102797       WILLIAMS       NATHAN                                       1981122120210412        20210915        B 6265 COUNTY ROAD 81                                         FLORENCE          AL35633     000000000 000000000 000000000 000000000 000000000 00000000000000000000000000000000000000000000000000000000000000000000000000000000000000000000000000000000000000000000000000000000000000000000000000000000002600000        0000R000000000 0  0000000 0000000000              M           NATHAN.WILLIAMS0011@GMAIL.COM                                                      00      
7120204541267823030    104139       WEEMS          JAMES                                        1988012920081015        20211208        B 290 CHANDLER DR                                             FLORENCE          AL35633     000000000 000000000 000000000 000000000 000000000 00000000000000000000000000000000000000000000000000000000000000000000000000000000000000000000000000000000000000000000000000000000000000000000000000000000002496000        0000R000000000 0  0000000 0000000000    20210920  M           WEEMS170@GMAIL.COM                                                                 00      
7120204541939115906    116830       THORNTON       CRYSTAL                                      1992032120110912                        B 307 FORD ST                                                 MUSCLE SHOALS     AL35661    A000002556 000000000 000000000 000000000 000000000 00000000000000000001000123602000124500000000000000000000000000000000000000279982100014272500000000000400000000000000000000000000000000000000000027998210003427840        0000R158829000 0  0000000 0002799821              F           CRYSTALLEIGH32192@AOL.COM                                                          00      
7120204542037842230    119168       ASHFORD        ANDREW                                       1991041820111219        20220622        B 112 HOSPITAL ROAD APT C2                                    RED BAY           AL35582     000000000 000000000 000000000 000000000 000000000 00000000000000000000000000000000000000000000000000000000000000000000000000075366400000929400000000000000000000000000000000000000000000000000000007536640002496000        0000R064571000 0  0000000 0000753664    20220207  M           ANDREWASHFORD23@GMAIL.COM                                                          00      
7120204542296850106    127630       MORRIS         SAMMY                                        1973091820140106                        B 516 WOODWARD AVENUE                                         FLORENCE          AL35630    A000000576Q000000576 000000000 000000000 000000000 00000000000000000001000606800000000000000000000000000000000000000000000000215305900008217900000000000100000000000000000000000000000000000000000021530590002845440        0010R151491000 0  0000000 0002153059              M           MORRISSAMMY88@GMAIL.COM                                                            00      
7120204541833641006    127802       STULTS         ABBY                                         1981122720140203                        B 2222 COLE AVE                                               FLORENCE          AL35630    A000002830 000000000 000000000 000000000 000000000 00000000000000000001000402602000554400000000000000000000000000000000000000284352000014323800000000000400000000000000000000000000000000000000000028435200003427840        0000R162370000 0  0000000 0002843520              F           STULTSA@AWBCINC.COM                                                                00      
7120204516978782506    141238       SHEWELL        MATTHEW                                      1998042820170717                        B 151 GILBERT COURT             APT E1                        FLORENCE          AL35630    A000001286 000000000 000000000 000000000 000000000 00000000000000000000000000000000000000000000000000000000000000000000000000249416500008494600000000000200000000000000000000000000000000000000000024941650003340480        0000R154751000 0  0000000 0002494165              M           MATTHEW_S18041@YAHOO.COM                                                           00      
7120204542347983530    141433       GROSS          CHRISTIAN                                    1998031420210913        20220114        B 201 HOLT AVENUE                                             FLORENCE          AL35630     000000000 000000000 000000000 000000000 000000000 00000000000000000000000000000000000000000000000000000000000000000000000000008297100000000000000000000000000000000000000000000000000000000000000000829710002808000        0000R006146000 0  0000000 0000082971              M           GROSSCHRIS20@GMAIL.COM                                                             00      
7120204542225077006    141437       WRIGHT         BOBBY                                        1974041520170814                        B 853 COUNTY ROAD 576                                         ROGERSVILLE       AL35652     000000000 000000000 000000000 000000000 000000000 00000000000000000000000000000000000000000000000000000000000000000000000000189458500009646400000000000000000000000000000000000000000000000000000018945850002496000        0000R158849000 0  0000000 0001894585              M           BOBBYWRIGHT773@YOHOO.COM                                                           00      
7120204522158910530    152743       SMITH          TABITHA                                      1976022820200720        20220715        B 509 DEERFIELD PL                                            FLORENCE          AL35630     000000000 000000000 000000000 000000000 000000000 00000000000000000000000000000000000000000000000000000000000000000000000000103031900004162700000000000000000000000000000000000000000000000000000010303190002496000        0000R081498000 0  0000000 0001030319    20211115  F           SMITHTABITH34@YAHOO.COM                                                            00      
7120204546133713906    153341       CASAS          ERASMO                                       1963090820201009                        B 13758 HWY 81                                                RUSSELLVILLE      AL35654    A000002527 000000000 000000000 000000000 000000000 00000000000000000000000000000000000000000000000000000000000000000000000000241404200009513800000000000400000000000000000000000000000000000000000024140420003234400        0000R148848000 0  0000000 0002414042              M           TERESACASAS100@YAHOO.COM                                                           00      
7120204542249275930    155515       DEGRAFFENRIED  JOSEPH                                       1999050420210524        20210805        B 100 QUAIL RUN APT D13                                       FLORENCE          AL35630     000000000 000000000 000000000 000000000 000000000 00000000000000000000000000000000000000000000000000000000000000000000000000000000000000000000000000000000000000000000000000000000000000000000000000000000002080000        0000R000000000 0  0000000 0000000000              M           JAYDEGRAFFENRIED@GMAIL.COM                                                         00      
7120204542241412230    155773       GRAHAM         JASMINE                                      1993113020210614        20211116        B 133 WASHINGTON STREET                                       FLORENCE          AL35630     000000000 000000000 000000000 000000000 000000000 00000000000000000000000000000000000000000000000000000000000000000000000000000000000000000000000000000000000000000000000000000000000000000000000000000000002600000        0000R000000000 0  0000000 0000000000              F           ROYALTWILIGHT00119@GMAIL.COM                                                       00      
7120204541641573430    155794       JETT           EMILY                                        1993013120210614        20220729        B 3276 OLD CHISHOLM ROAD        APT 1113D                     FLORENCE          AL35630     000000000 000000000 000000000 000000000 000000000 00000000000000000000000000000000000000000000000000000000000000000000000000108090300002324900000000000000000000000000000000000000000000000000000010809030002496000        0000R090012000 0  0000000 0001080903              F           JETTTR79@YAHOO.COM                                                                 00      
7120204525299139930    156192       TOWNSEND       JORIA                                        1997022020210712        20210923        B 343 COPPER CREEK PL                                         FLORENCE          AL35630     000000000 000000000 000000000 000000000 000000000 00000000000000000000000000000000000000000000000000000000000000000000000000000000000000000000000000000000000000000000000000000000000000000000000000000000002288000        0000R000000000 0  0000000 0000000000              F           JORIATOWNSEND@GMAIL.COM                                                            00      
7120204542249904330    156311       KELLUM         MAKAYLA                                      1999052920210719        20220502        B 2800 EAST 10TH AVE.                                         SHEFFIELD         AL35660     000000000 000000000 000000000 000000000 000000000 00000000000000000000000000000000000000000000000000000000000000000000000000099457200002611200000000000000000000000000000000000000000000000000000009945720003063840        0000R066932000 0  0000000 0000994572              F           MAKAYLAJOYKELLUM@GMAIL.COM                                                         00      
7120204525369843730    156593       WYNN           DESMONA                                      1981083120210816        20211111        B 3788 CHISHOLM ROAD            25                            FLORENCE          AL35630     000000000 000000000 000000000 000000000 000000000 00000000000000000000000000000000000000000000000000000000000000000000000000000000000000000000000000000000000000000000000000000000000000000000000000000000002548000        0000R000000000 0  0000000 0000000000              F           DESMONAWYNN@GMAIL.COM                                                              00      
7120204563116331730    156607       CRITTENDEN     JASMINE                                      1988032420210816        20211102        B 4862 ELLEDGE LN                                             TUSCUMBIA         AL35674     000000000 000000000 000000000 000000000 000000000 00000000000000000000000000000000000000000000000000000000000000000000000000000000000000000000000000000000000000000000000000000000000000000000000000000000002444000        0000R000000000 0  0000000 0000000000              F           CRITTENDEN.JASMINE2@GMAIL.COM                                                      00      
7120204551098013406    156869       MCDONALD       KEVIN                                        1988100120210901                        B 212 HEATHROW DRIVE            APT H                         FLORENCE          AL35633     000000000 000000000 000000000 000000000 000000000 00000000000000000000000000000000000000000000000000000000000000000000000000177886100004446600000000000000000000000000000000000000000000000000000017788610002916160        0000R130861000 0  0000000 0001778861              M                                                                                              00      
7120204542575853930    156893       HUGHES         DYLAN                                        1992122820210830        20220201        B 151 GILBERT C                                               FLORENCE          AL35603     000000000 000000000 000000000 000000000 000000000 00000000000000000000000000000000000000000000000000000000000000000000000000012671600000000000000000000000000000000000000000000000000000000000000001267160002340000        0000R011787000 0  0000000 0000126716              M                                                                                              00      
7120204541935173530    157816       VAUGHN         RAPHAEL                                      1990052520211101        20220118        B 30 RAINBOW CITY DR                                          FLORENCE          AL35633     000000000 000000000 000000000 000000000 000000000 00000000000000000000000000000000000000000000000000000000000000000000000000002838000000000000000000000000000000000000000000000000000000000000000000283800002496000        0000R002365000 0  0000000 0000028380              M           YUNGRIZZLE25@GMAIL.COM                                                             00      
7120204541847707730    158360       DANIEL         COBY                                         1997053120211108        20220208        B 1815 GEORGE WALLACE HWY                                     RUSSELLVILLE      AL35654     000000000 000000000 000000000 000000000 000000000 00000000000000000000000000000000000000000000000000000000000000000000000000016119900000000000000000000000000000000000000000000000000000000000000001611990001196000        0000R014017000 0  0000000 0000161199              M           COBYDANIEL975_8UN@INDEEDEMAIL.COM                                                  00      
7120204542319381906    158885       AUSTIN         KELLY                                        1968081420211206                        B 1825 BROADWAY BLVD.                                         FLORENCE          AL35630     000000000 000000000 000000000 000000000 000000000 00000000000000000000000000000000000000000000000000000000000000000000000000194598700010019100000000000000000000000000000000000000000000000000000019459870002496000        0000R156252000 0  0000000 0001945987              M           BKVAUSTIN@ATT.NET                                                                  00      
7120204542135225830    158916       HUBBARD        VARIAN                                       1990062020211206        20220211        B 190 ROCKY GLEN RD                                           RUSSELLVILLE      AL35654     000000000 000000000 000000000 000000000 000000000 00000000000000000000000000000000000000000000000000000000000000000000000000053458800005000000000000000000000000000000000000000000000000000000000005345880002808000        0000R034357000 0  0000000 0000534588              M           HUBBARDVARIAN1@GMAIL.COM                                                           00      
7120204542145596506    159182       BECKMAN        HENRY                                        1996070420220110                        B 120 N WEAKELY ST                                            FLORENCE          AL35630     000000000 000000000 000000000 000000000 000000000 00000000000000000000000000000000000000000000000000000000000000000000000000173836200002076400000000000000000000000000000000000000000000000000000017383620002704000        0000R128844000 0  0000000 0001738362              M           HBECKMAN2@GMAIL.COM                                                                00      
7120204531108314830    159458       WOOLDRIDGE     COLEMAN                                      1989112520220207        20220907        B 209 CHASEBROOK DR.                                          KILLEN            AL35645     000000000 000000000 000000000 000000000 000000000 00000000000000000000000000000000000000000000000000000000000000000000000000143153100001084400000000000000000000000000000000000000000000000000000014315310002496000        0000R111595000 0  0000000 0001431531              M           WOOLDRCJ@GMAIL.COM                                                                 00      
7120204562442885530    160354       DAVIS          DEMARIE                                      1990050520220509        20220812        B 214 ROOSEVELT AVE                                           FLORENCE          AL35630     000000000 000000000 000000000 000000000 000000000 00000000000000000000000000000000000000000000000000000000000000000000000000061568100002966200000000000000000000000000000000000000000000000000000006156810002600000        0000R046878000 0  0000000 0000615681              M           DEMARIEDAVIS9@GMAIL.COM                                                            00      
7120204542339976897    160878       GIST           STACEY                                       1992111020220614                        B 3351 COUNTY ROAD 39                                         LEXINGTON         AL35648     000000000 000000000 000000000 000000000 000000000 00000000000000000000000000000000000000000000000000000000000000000000000000059850600002370900000000000000000000000000000000000000000000000000000005985060003172000        0000R040371000 0  0000000 0000598506    20220627  F           STACEYGIST6@GMAIL.COM                                                             000      
7120204542251432306    161071       FUGATT         ALEXANDER                                    2000082320220711                        B 245 COUNTY RD 290                                           FLORENCE          AL35633     000000000 000000000 000000000 000000000 000000000 00000000000000000000000000000000000000000000000000000000000000000000000000031858900001095600000000000300000000000000000000000000000000000000000003185890002704000        0030R025166000 0  0000000 0000318589              M           ALEXANDERFUGATT1441@GMAIL.COM                                                      00      
7120204542496679397    134947       OWENS          CHRIS                                        1972011320151026                        B 507 LITTLE ROCK AVE APT A4                                  SHEFFIELD         AL35660     000000000 000000000 000000000 000000000 000000000 00000000000000000000000000000000000000000000000000000000000000000000000000161238000003643900000000000000000000000000000000000000000000000000000016123800002912000        0000R124051000 0  0000000 0001612380    20210628  M           COWENS131372@GMAIL.COM                                                            000      
7120204541798449206    138756       THOMAS JR.     ARTHUR                                       1967120920161024                        B 1241 COUNTY ROAD 457                                        FLORENCE          AL35633    A000005474Q000001642 000000000 000000000 000000000 00000000000000000001000557300000000000000000000000000000000000000000000000211141600010005700000000001000000000000000000000000000000000000000000021114160002704000        0030R160702000 0  0000000 0002111416              M           DINKYTHOMAS123@GMAIL.COM                                                           00      
7120204541843176397    148401       HILL           JOSEPH                                       1994073020190408                        B 203 SOUTH MAIN STREET                                       FLORENCE          AL35630     000000000 000000000 000000000 000000000 000000000 00000000000000000000000000000000000000000000000000000000000000000000000000115752300003903900000000000000000000000000000000000000000000000000000011575230002912000        0000R082601000 0  0000000 0001157523    20220424  M           JOSEPHMHILL256@GMAIL.COM                                                          000      
7120204541849904497    148624       RICHARDSON     JACOB                                        1998101620190506                        B 1235 HERMITAGE DR APT. 25A                                  FLORENCE          AL35630     000000000 000000000 000000000 000000000 000000000 00000000000000000000000000000000000000000000000000000000000000000000000000287203400011660000000000000000000000000000000000000000000000000000000028720340003427840        0000R164839000 0  0000000 0002872034    20200921  M           JACOBRICHARDSON844@GMAIL.COM                                                      000      
7120204541651800497    149860       ROMEO          AUGUST                                       1999102720190819                        B 222 GILBERT COURT             APT A3                        FLORENCE          AL35630     000000000 000000000 000000000 000000000 000000000 00000000000000000000000000000000000000000000000000000000000000000000000000163796700005041100000000000000000000000000000000000000000000000000000016379670002912000        0000R113624000 0  0000000 0001637967    20220228  M           CHRISROMEO.8@GMAIL.COM                                                            000      
7120204542141586030    152939       WILSON         ASHTON                                       1993100620200831        20211025        B 1539 HELTON DRIVE APARTMENT C6                              FLORENCE          AL35630     000000000 000000000 000000000 000000000 000000000 00000000000000000000000000000000000000000000000000000000000000000000000000000000000000000000000000000000000000000000000000000000000000000000000000000000002184000        0000R000000000 0  0000000 0000000000              M           BWILSON_22@YAHOO.COM                                                               00      
7120204541706900830    153167       LASSITER       MICHAEL                                      1963031320200928        20211104        B 108 RICHARD HORTON LN.                                      COLLINWOOD        TN38450     000000000 000000000 000000000 000000000 000000000 00000000000000000000000000000000000000000000000000000000000000000000000000000000000000000000000000000000000000000000000000000000000000000000000000000000002360800        0000R000000000 0  0000000 0000000000              M           MUDDUCK196319@YAHOO.COM                                                            00      
7120204541285971530    154095       WILSON         JOHNATHAN                                    1998121120201207        20210922        B 1159 PINEY ROAD                                             CYPRESS INN       TN38452     000000000 000000000 000000000 000000000 000000000 00000000000000000000000000000000000000000000000000000000000000000000000000000000000000000000000000000000000000000000000000000000000000000000000000000000002288000        0000R000000000 0  0000000 0000000000    20210601  M           JTWILSON1211@GMAIL.COM                                                             00      
7120204541059923030    154909       STUTTS         DAVEY                                        1988022220210329        20210819        B 317 HOWELL ST                                               FLORENCE          AL35630     000000000 000000000 000000000 000000000 000000000 00000000000000000000000000000000000000000000000000000000000000000000000000000000000000000000000000000000000000000000000000000000000000000000000000000000003224000        0000R000000000 0  0000000 0000000000              M           DSTUTTS82@GMAIL.COM                                                                00      
7120204541641716930    155015       CASAS          AUSTIN                                       1993020720210414        20210816        B 235 COUNTY ROAD 577                                         ROGERSVILLE       AL35652     000000000 000000000 000000000 000000000 000000000 00000000000000000000000000000000000000000000000000000000000000000000000000000000000000000000000000000000000000000000000000000000000000000000000000000000002860000        0000R000000000 0  0000000 0000000000              M           AMBERBUTLER196@GMAIL.COM                                                           00      
7120204525885365130    155625       ZONE           ALLIE                                        1992121620210601        20210803        B 418 S CONNER ST                                             FLORENCE          AL35630     000000000 000000000 000000000 000000000 000000000 00000000000000000000000000000000000000000000000000000000000000000000000000000000000000000000000000000000000000000000000000000000000000000000000000000000002184000        0000R000000000 0  0000000 0000000000              M           ALITAZONESS@GMAIL.COM                                                              00      
7120204542145070430    155739       LITTLETON      BRIEANNA                                     1996052320210614        20210908        B 1825 DARBY DRIVE APT. F10     F10                           FLORENCE          AL35630     000000000 000000000 000000000 000000000 000000000 00000000000000000000000000000000000000000000000000000000000000000000000000000000000000000000000000000000000000000000000000000000000000000000000000000000002288000        0000R000000000 0  0000000 0000000000              F           BLITTLETON16@GMAIL.COM                                                             00      
7120204521343600706    156102       MONTALTO       JASON                                        1994100920210712                        B 1032 N WOOD AVE               APT 17                        FLORENCE          AL35630     000000000 000000000 000000000 000000000 000000000 00000000000000000000000000000000000000000000000000000000000000000000000000113534100026680200000000000400000000000000000000000000000000000000000011353410002959840        0000R068176000 0  0000000 0001135341              M           JMONTALTO1994@GMAIL.COM                                                            00      
7120204542243419730    158405       PARKER         ZONTEZ                                       1995040720211108        20220222        B 502 MARS HILL RD. APT H7                                    FLORENCE          AL35630     000000000 000000000 000000000 000000000 000000000 00000000000000000000000000000000000000000000000000000000000000000000000000027162800003000000000000000000000000000000000000000000000000000000000002716280002808000        0000R018706000 0  0000000 0000271628              M           PZONTEZ60@GMAIL.COM                                                                00      
7120204540867873330    158537       PETTY          KENDERICK                                    1990090420211115        20220224        B 3345 WILLIE MAULDON RD                                      LUTTS             TN38471     000000000 000000000 000000000 000000000 000000000 00000000000000000000000000000000000000000000000000000000000000000000000000021253900004000000000000000000000000000000000000000000000000000000000002125390002808000        0000R013396000 0  0000000 0000212539              M           FIREFIGHTERPETTY@GMAIL.COM                                                         00      
7120204515468530506    158558       CATECHIS       GALEN                                        1963091120211115                        B 437 WEST LEE AVE                                            FLORENCE          AL35630     000000000 000000000 000000000 000000000 000000000 00000000000000000000000000000000000000000000000000000000000000000000000000234498400010935800000000000000000000000000000000000000000000000000000023449840003120000        0000R149437000 0  0000000 0002344984              M           GALENCATECHIS41@GMAIL.COM                                                          00      
7120204540704276730    158772       MCCOY          DERMARCUS                                    1970061220211129        20220509        B 901 NORTH ROYAL AVE                                         FLORENCE          AL35630     000000000 000000000 000000000 000000000 000000000 00000000000000000000000000000000000000000000000000000000000000000000000000060423700007620000000000000000000000000000000000000000000000000000000006042370002808000        0000R041577000 0  0000000 0000604237              M           DERMARCUSMCCOY10@GMAIL.COM                                                         00      
7120204548990409530    158865       MCWHIRTER      MICHAEL                                      1984102420211206        20220222        B 519 N PATTON ST                                             FLORENCE          AL35630     000000000 000000000 000000000 000000000 000000000 00000000000000000000000000000000000000000000000000000000000000000000000000039099700003500000000000000000000000000000000000000000000000000000000003909970002704000        0000R029420000 0  0000000 0000390997              M           JOEDIZZLE0829@GMAIL.COM                                                            00      
7120204558901472506    159110       COAKLEY        THOMAS                                       1977100220220103                        B 201 VIRGINIA AVENUE                                         FLORENCE          AL35630    A000000977 000000000 000000000 000000000 000000000 00000000000000000000000000000000000000000000000000000000000000000000000000143626600001889100000000000200000000000000000000000000000000000000000014362660002496000        0000R122604000 0  0000000 0001436266              M           TAMMYSWATZELL920@GMAIL.COM                                                         00      
7120204541939829430    160042       AGEE           PATRICK                                      1992041320220411        20220821        B 908 MCCLAIN AVE                                             SHEFFIELD         AL35660     000000000 000000000 000000000 000000000 000000000 00000000000000000000000000000000000000000000000000000000000000000000000000064693300000000000000000000000000000000000000000000000000000000000000006469330002912000        0000R046169000 0  0000000 0000646933              M           AGEEPATRICK1992@GMAIL.COM                                                          00      
7120204556267482706    160332       GABBETT        DANIEL                                       1965060820220509                        B 1928 HIGHWAY 64                                             KILLEN            AL35645    A000004918 000000000 000000000 000000000 000000000 00000000000000000000000000000000000000000000000000000000000000000000000000081924100003049200000000001000000000000000000000000000000000000000000008192410002704000        0000R060673000 0  0000000 0000819241              M           DANNO49@GMAIL.COM                                                                  00      
7120204562432487806    160498       MOSLEY         KOURTNEY                                     1987121520220523                        B 510 GREEN ACRES DRIVE                                       TUSCUMBIA         AL35674    A000002657 000000000 000000000 000000000 000000000 00000000000000000000000000000000000000000000000000000000000000000000000000076601400003059100000000000500000000000000000000000000000000000000000007660140002704000        0000R056571000 0  0000000 0000766014              F           TIGERSEYE1215@GMAIL.COM                                                            00      
7120204541715965230    78667        GAUTNEY        CATHERINE                                    1981061519991012        20210920        B 22210 COUNTY ROAD 8 LOT # 9                                 FLORENCE          AL35633     000000000 000000000 000000000 000000000 000000000 00000000000000000000000000000000000000000000000000000000000000000000000000000000000000000000000000000000000000000000000000000000000000000000000000000000002912000        0000R000000000 0  0000000 0000000000    20190506  F           KATMCRAE1009@GMAIL.COM                                                             00      
7120204542302468497    78714        JONES          STEPHANIE                                    1975120319990125                        B 23515 COUNTY ROAD 14                                        FLORENCE          AL35633     000000000 000000000 000000000 000000000 000000000 00000000000000000000000000000000000000000000000000000000000000000000000000288967200015004000000000000000000000000000000000000000000000000000000028896720003427840        0000R163344000 0  0000000 0002889672    20200106  F           MOMOF4197577@YAHOO.COM                                                            000      
7120204542408893530    78723        BECKMAN        STEVEN                                       1978071920000228        20220407        B 9296 HWY 64                                                 LEXINGTON         AL35648     000000000 000000000 000000000 000000000 000000000 00000000000000000000000000000000000000000000000000000000000000000000000000032331900004128900000000000000000000000000000000000000000000000000000003233190002912000        0000R022545000 0  0000000 0000323319    20220207  M           TBECKMAN30@GMAIL.COM                                                               00      
7120204542176319506    81944        CLAYTON        SUSAN                                        1953061820040923                        B 118 PINEBROOK DR.                                           FLORENCE          AL35633    A000002485Q000002485 000000000 000000000 000000000 00000000000000000000000000000000000000000000000000000000000000000000000000249039500016184500000000000400000000000000000000000000000000000000000024903950002997280        0040R158534000 0  0000000 0002490395              F                                                                                              00      
7120204554797830906    88966        BRADBRUN       VANESSA                                      1987062320070606                        B 26 HUGHES HOLLOW RD                                         LAWRENCEBURG      TN38464    A000004802 000000000 000000000 000000000 000000000 00000000000000000001000258600000000000000000000000000000000000000000000000183813400006402600000000001000000000000000000000000000000000000000000018381340002689440        0000R139152000 0  0000000 0001838134              F                                                                                              00      
7120204542333387997    102330       DUNCAN         ZAC                                          1989112120080610                        B 3150 ROBERSON ROAD                                          FLORENCE          AL35630    A000002028 000000000 000000000 000000000 000000000 00000000000000000000000000000000000000000000000000000000000000000000000000069762700002940700000000000600000000000000000000000000000000000000000006976270002912000        0000R047730000 0  0000000 0000697627    20220523  M           ZACDUNCAN1989@GMAIL.COM                                                           000      
7120204541931367397    104428       MCCLOUD        NAPHTALI                                     1983031120081029                        B 1043 SOUTH WASHINGTON ST                                    RUSSELLVILLE      AL35653    A000006147 000000000 000000000 000000000 000000000 00000000000000000000000000000000000000000000000000000000000000000000000000196926400011213100000000001000000000000000000000000000000000000000000019692640002912000        0000R141274000 0  0000000 0001969264    20181210  M           NAPHMCC@HOTMAIL.COM                                                               000      
7120204542031710330    104434       PROCTOR        JUSTIN                                       1983052320210419        20211218        B 24770 CBJ LN                                                ATHENS            AL35613     000000000 000000000 000000000 000000000 000000000 00000000000000000000000000000000000000000000000000000000000000000000000000000000000000000000000000000000000000000000000000000000000000000000000000000000002808000        0000R000000000 0  0000000 0000000000              M           DR.ZOIDBERGER83@GMAIL.COM                                                          00      
7120204540817888806    104901       WILSON         WANDA                                        1960040220081118                        B 6353 PUMPING STATION RD                                     CYPRESS INN       TN38452    A000002052 000000000 000000000 000000000 000000000 00000000000000000000000000000000000000000000000000000000000000000000000000206643400009027300000000000400000000000000000000000000000000000000000020664340002930720        0000R140861000 0  0000000 0002066434              F                                                                                              00      
7120204541831591830    122231       MELTON         PHILLIP                                      1980090920121001        20220620        B 338 SHALER DR                                               KILLEN            AL35645     000000000 000000000 000000000 000000000 000000000 00000000000000000000000000000000000000000000000000000000000000000000000000060206500003000000000000000000000000000000000000000000000000000000000006020650002912000        0000R041982000 0  0000000 0000602065    20211208  M           PHILLIPMELTON82@GMAIL.COM                                                          00      
7120204543781007597    133645       OLSEN          JUSTIN                                       1991041220150727                        B 93 CO.RD 419                                                KILLEN            AL35645    A000001300 000000000 000000000 000000000 000000000 00000000000000000000000000000000000000000000000000000000000000000000000000143483200004246000000000000300000000000000000000000000000000000000000014348320002496000        0000R121625000 0  0000000 0001434832    20201002  M           JUSTINOLSEN45_8AQ@INDEEDEMAIL.COM                                                 000      
7120204542145300530    134123       WALDEN         SAMUEL                                       1996060820150831        20211008        B 40 BETSY ROSS LN                                            FLORENCE          AL35633     000000000 000000000 000000000 000000000 000000000 00000000000000000000000000000000000000000000000000000000000000000000000000000000000000000000000000000000000000000000000000000000000000000000000000000000002288000        0000R000000000 0  0000000 0000000000    20200706  M           SWGHOST256@GMAIL.COM                                                               00      
7120204541947813730    137609       THOMPSON       KALIYAH                                      1997080120160725        20210920        B 820 PINE ST                                                 CHEROKEEE         AL35616     000000000 000000000 000000000 000000000 000000000 00000000000000000000000000000000000000000000000000000000000000000000000000000000000000000000000000000000000000000000000000000000000000000000000000000000002215200        0000R000000000 0  0000000 0000000000    20190610  F           KALIYAHTHOMPSON435@YAHOO.COM                                                       00      
7120204541025753597    150023       VAN HOOSE      TAMMY                                        1971081120190826                        B 1455 COUNTY ROAD 11                                         FLORENCE          AL35633    A000001096 000000000 000000000 000000000 000000000 00000000000000000000000000000000000000000000000000000000000000000000000000194821400007099400000000000200000000000000000000000000000000000000000019482140002631200        0000R148259000 0  0000000 0001948214    20211011  F           TAMMY.VANHOOSE@HOTMAIL.COM                                                        000      
7120204542145263330    151903       NEWCOMB        AUSTIN                                       1996051820200102        20211028        B 650 VALLEY CREST DR                                         FLORENCE          AL35630     000000000 000000000 000000000 000000000 000000000 00000000000000000000000000000000000000000000000000000000000000000000000000000000000000000000000000000000000000000000000000000000000000000000000000000000002080000        0000R000000000 0  0000000 0000000000    20210208  M           AUSTINNEWCOMB87@GMAIL.COM                                                          00      
7120204542347434706    153084       SIEMIENTKOWSKI KATELYN                                      1998021120200921                        B 324 SOUTH RICHARDS ST                                       FLORENCE          AL35630    A000000406 000000000 000000000 000000000 000000000 00000000000000000000000000000000000000000000000000000000000000000000000000167287000007380500000000000100000000000000000000000000000000000000000016728700002496000        0000R137422000 0  0000000 0001672870              F           MCKENZIESIEMIENTKOWSKI@COMCAST.NET                                                 00      
7120204535482490530    153311       KEYES          GREGORY                                      1989060120201009        20220502        B 1509 MARLBOROUGH BLVD                                       FLORENCE          AL35630     000000000 000000000 000000000 000000000 000000000 00000000000000000000000000000000000000000000000000000000000000000000000000132321500007058300000000000000000000000000000000000000000000000000000013232150003427840        0000R076181000 0  0000000 0001323215              M           BREWMILW@GMAIL.COM                                                                 00      
7120204541637221530    154593       MITCHELL       LOUIS                                        1990121820210214        20210804        B 265 BRADFORD ST                                             FLORENCE          AL35633     000000000 000000000 000000000 000000000 000000000 00000000000000000000000000000000000000000000000000000000000000000000000000000000000000000000000000000000000000000000000000000000000000000000000000000000002288000        0000R000000000 0  0000000 0000000000              M           LOUIS.MITCHELL420@GMAIL.COM                                                        00      
7120204541391625930    155725       THOMPSON       JESSICA                                      2001090120210607        20211124        B 1033 BELLEMEADE AVE                                         FLORENCE          AL35630     000000000 000000000 000000000 000000000 000000000 00000000000000000000000000000000000000000000000000000000000000000000000000000000000000000000000000000000000000000000000000000000000000000000000000000000002184000        0000R000000000 0  0000000 0000000000              F                                                                                              00      
7120204515180770830    156044       BELL           HEATHER                                      1986122120210628        20211001        B 109 TALISMAN DRIVE                                          FLORENCE          AL35630     000000000 000000000 000000000 000000000 000000000 00000000000000000000000000000000000000000000000000000000000000000000000000000000000000000000000000000000000000000000000000000000000000000000000000000000002184000        0000R000000000 0  0000000 0000000000              F           BELL.HEATHER1986@YAHOO.COM                                                         00      
7120204541849502530    156217       BOGUS          JONATHAN                                     1998092520210712        20211011        B 365 COUNTY ROAD 262                                         FLORENCE          AL35633     000000000 000000000 000000000 000000000 000000000 00000000000000000000000000000000000000000000000000000000000000000000000000000000000000000000000000000000000000000000000000000000000000000000000000000000002288000        0000R000000000 0  0000000 0000000000              M           BOGUS.JONATHAN@GMAIL.COM                                                           00      
7120204508480430630    156262       FUQUA          TAYLOR                                       1992042720210719        20211206        B 221 MARKATE AVE MUSCLE SHOALS                               MUSCLE SHOALS     AL35661     000000000 000000000 000000000 000000000 000000000 00000000000000000000000000000000000000000000000000000000000000000000000000000000000000000000000000000000000000000000000000000000000000000000000000000000002392000        0000R000000000 0  0000000 0000000000              F           TAYLORFUQUA87@GMAIL.COM                                                            00      
7120204541355043730    156323       MATTHEWS       CHERYL                                       1984022320210726        20220211        B 175 STAR LANE UNIT 7                                        KILLEN            AL35645     000000000 000000000 000000000 000000000 000000000 00000000000000000000000000000000000000000000000000000000000000000000000000013847800000000000000000000000000000000000000000000000000000000000000001384780002704000        0000R010634000 0  0000000 0000138478              F           CHERYLLYNN363@GMAIL.COM                                                            00      
7120204541937907830    156334       HOOKS          MONTONYO                                     1991012720210726        20220620        B 1803 NORRIS AVE               3                             FLORENCE          AL35630     000000000 000000000 000000000 000000000 000000000 00000000000000000000000000000000000000000000000000000000000000000000000000025051000000000000000000000000000000000000000000000000000000000000000002505100002704000        0000R019270000 0  0000000 0000250510    20220418  M           HMONTONYO@GMAIL.COM                                                                00      
7120204564326877230    156344       BERTRAND       JUSTIN                                       1991090520210726        20211203        B 505 PARK BLVD                                               SHEFFIELD         AL35660     000000000 000000000 000000000 000000000 000000000 00000000000000000000000000000000000000000000000000000000000000000000000000000000000000000000000000000000000000000000000000000000000000000000000000000000002912000        0000R000000000 0  0000000 0000000000              M           JUSTINBERTRAND2010@GMAIL.COM                                                       00      
7120204542051022930    156523       SUMMERHILL     KEVON                                        2000042020210809        20220511        B 807 NORTH MAIN ST                                           TUSCUMBIA         AL35674     000000000 000000000 000000000 000000000 000000000 00000000000000000000000000000000000000000000000000000000000000000000000000059665300003777300000000000000000000000000000000000000000000000000000005966530002496000        0000R052020000 0  0000000 0000596653              M           SUMMERHILLKEVON.KS@GMAIL.COM                                                       00      
7120204531796926530    156524       HART           CHRIS                                        1985081020210809        20211011        B 640 CARTER DR                                               TUSCUMBIA         AL35674     000000000 000000000 000000000 000000000 000000000 00000000000000000000000000000000000000000000000000000000000000000000000000000000000000000000000000000000000000000000000000000000000000000000000000000000002496000        0000R000000000 0  0000000 0000000000              M           CHRISTOPHERHART1985@GMAIL.COM                                                      00      
7120204542249608930    156717       RILEY          CASSIE                                       1999052120210823        20220630        B 203 HEATHROW DR                                             FLORENCE          AL35633     000000000 000000000 000000000 000000000 000000000 00000000000000000000000000000000000000000000000000000000000000000000000000105363200004307000000000000000000000000000000000000000000000000000000010536320002529280        0000R082847000 0  0000000 0001053632              F           CASSIERILEY43@YAHOO.COM                                                            00      
7120204505384028306    156868       WILLIAMS       ZOE                                          1994101220210830                        B 1913 WILSON BLVD                                            RUSSELLVILLE      AL35653    A000005174 000000000 000000000 000000000 000000000 00000000000000000000000000000000000000000000000000000000000000000000000000174872000007468200000000001000000000000000000000000000000000000000000017487200002496000        0000R143372000 0  0000000 0001748720              F                                                                                              00      
7120204553784600530    156952       MCKENZIE       ROBERT                                       1962121520210901        20220106        B 1850 DARBY DRIVE              APT 204                       FLORENCE          AL35630     000000000 000000000 000000000 000000000 000000000 00000000000000000000000000000000000000000000000000000000000000000000000000000000000000000000000000000000000000000000000000000000000000000000000000000000002600000        0000R000000000 0  0000000 0000000000              M           SANDYM204@GMAIL.COM                                                                00      
7120204506988067030    157165       REEDY          BRENDAN                                      1998072320210920        20220128        B 1913 WILSON BLVD                                            RUSSELLVILLE      AL35653     000000000 000000000 000000000 000000000 000000000 00000000000000000000000000000000000000000000000000000000000000000000000000020666300002000000000000000000000000000000000000000000000000000000000002066630002288000        0000R016802000 0  0000000 0000206663              M           REEDY538@GMAIL.COM                                                                 00      
7120204541751670506    157540       THREET         BRANDON                                      1999121220211011                        B 534 E LAKESIDE DR                                           FLORENCE          AL35630     000000000 000000000 000000000 000000000 000000000 00000000000000000000000000000000000000000000000000000000000000000000000000173221200006392000000000000000000000000000000000000000000000000000000017322120001248000        0000R142098000 0  0000000 0001732212              M           BRANDONTHREET5_X2O@INDEEDEMAIL.COM                                                 00      
7120204549413011930    158099       LEE            BRITTANY                                     1997032520211108        20220406        B 385 NORTH PIKE                                              CHEROKEE          AL35616     000000000 000000000 000000000 000000000 000000000 00000000000000000000000000000000000000000000000000000000000000000000000000066966600005000000000000000000000000000000000000000000000000000000000006696660002496000        0000R052573000 0  0000000 0000669666              F           BRITTANYLEE737_Y3C@INDEEDEMAIL.COM                                                 00      
7120204542251827630    158657       ROBINSON       JALIL                                        2000091320211122        20220228        B 402 TRENHOLM MEMORIAL DRIVE                                 TUSCUMBIA         AL35674     000000000 000000000 000000000 000000000 000000000 00000000000000000000000000000000000000000000000000000000000000000000000000028242400004000000000000000000000000000000000000000000000000000000000002824240002392000        0000R021649000 0  0000000 0000282424              M           JALILROBINSON@GMAIL.COM                                                            00      
7120204542198327606    158711       BOWLIN         GREGORY                                      1961120620211122                        B 280 COUNTY ROAD 455                                         KILLEN            AL35645     000000000 000000000 000000000 000000000 000000000 00000000000000000000000000000000000000000000000000000000000000000000000000219133000009941300000000000000000000000000000000000000000000000000000021913300002912000        0000R146175000 0  0000000 0002191330              M           GDBOWLIN1961@GMAIL.COM                                                             00      
7120204541619337030    158723       ANDERS         TIMOTHY                                      1983120220211122        20220324        B 149 HICKORY TRACE LANE                                      FLORENCE          AL35633     000000000 000000000 000000000 000000000 000000000 00000000000000000000000000000000000000000000000000000000000000000000000000061420100004176600000000000000000000000000000000000000000000000000000006142010003016000        0000R041687000 0  0000000 0000614201              M           BAMABOY1202@GMAIL.COM                                                              00      
7120204541815140230    158860       HAMM           THOMAS                                       1978121220211201        20220324        B 1050 EAST LIMESTONE ST        D-11                          FLORENCE          AL35630     000000000 000000000 000000000 000000000 000000000 00000000000000000000000000000000000000000000000000000000000000000000000000066595200004500000000000000000000000000000000000000000000000000000000006659520002912000        0000R045617000 0  0000000 0000665952              M           THAMM808@GMAIL.COM                                                                 00      
7120204541925597606    159563       MILLER         BRADLEY                                      1987041320220221                        B 20 SOUTH FRANKLIN STREET                                    FLORENCE          AL35630    A000002560 000000000 000000000 000000000 000000000 00000000000000000000000000000000000000000000000000000000000000000000000000167358500005259300000000000400000000000000000000000000000000000000000016735850003328000        0000R108622000 0  0000000 0001673585              M           BRADLEYMILLER481@GMAIL.COM                                                         00      
7120204541735233330    159861       WRIGHT         BRADLEYR                                     1989122020220321        20220526        B 2722 LITTLE JOHN STREET                                     FLORENCE          AL35633     000000000 000000000 000000000 000000000 000000000 00000000000000000000000000000000000000000000000000000000000000000000000000040056800000146100000000000000000000000000000000000000000000000000000004005680002704000        0000R030637000 0  0000000 0000400568              M           KINGOFGOLD59@GMAIL.COM                                                             00      
7120204542349828806    160059       JONES          JAQUALYN                                     1999062920220405                        B 141 SOUTH NANCE STREET                                      FLORENCE          AL35630     000000000 000000000 000000000 000000000 000000000 00000000000000000000000000000000000000000000000000000000000000000000000000080859500000000000000000000000000000000000000000000000000000000000000008085950002704000        0000R064569000 0  0000000 0000808595              M           JONESJAQUALYN@GMAIL.COM                                                            00      
7120204542251157006    160165       CARRUTH        SKYLAR                                       2000080820220412                        B 304 WEST NASSAU AVE                                         MUSCLE SHOALS     AL35661     000000000 000000000 000000000 000000000 000000000 00000000000000000000000000000000000000000000000000000000000000000000000000077481700000283000000000000000000000000000000000000000000000000000000007748170002704000        0000R060093000 0  0000000 0000774817              M           SKYLAR.CARRUTH@ICLOUD.COM                                                          00      
7120204542449079530    160203       PONCE          NOAH                                         1999080620220412        20220809        B 4415 CHISOLM RD APT D6                                      FLORENCE          AL35630     000000000 000000000 000000000 000000000 000000000 00000000000000000000000000000000000000000000000000000000000000000000000000059238400000000000000000000000000000000000000000000000000000000000000005923840002704000        0000R045568000 0  0000000 0000592384              M           NOAHPONCE9@GMAIL.COM                                                               00      
7120204541951742230    160271       GLAZE          CHRISTOPHER                                  2000040420220502        20220715        B 137 WOODLAND HILLS DRIVE                                    FLORENCE          AL35634     000000000 000000000 000000000 000000000 000000000 00000000000000000000000000000000000000000000000000000000000000000000000000034027000000000000000000000000000000000000000000000000000000000000000003402700002704000        0000R027839000 0  0000000 0000340270              M           CHRISTOPHERGLAZE0404@GMAIL.COM                                                     00      
7120204537098519230    160395       GILBERT        ALVIN                                        1986081920220516        20220822        B 1822 MAPLE AVE                                              FLORENCE          AL35630     000000000 000000000 000000000 000000000 000000000 00000000000000000000000000000000000000000000000000000000000000000000000000055641800002293400000000000000000000000000000000000000000000000000000005564180002496000        0000R044457000 0  0000000 0000556418              M           GILBERTA162@GMAIL.COM                                                              00      
7120204541890962730    80606        BRUST          DEBORAH                                      1957061219960609        20220719        B 12025 COUNTY ROAD 2                                         FLORENCE          AL35633     000000000 000000000 000000000 000000000 000000000 00000000000000000000000000000000000000000000000000000000000000000000000000146383300004823400000000000000000000000000000000000000000000000000000014638330002566720        0000R115699000 0  0000000 0001463833              F                                                                                              00      
7120204541908250906    80621        MULLINS        SHANNON                                      1978010920020128                        B 172 NORTH PRAIRIE STREET                                    FLORENCE          AL35630    A000008677 000000000 000000000 000000000 000000000 00000000000000000001000400902002890700000000000000000000000000000000000000324330400021315900000000001200000000000000000000000000000000000000000032433040003848000        0000R161254000 0  0000000 0003243304              M                                                                                              00      
7120204541706037906    81061        VICKRY         WAYNE                                        1974060119940514                        B 1370 COUNTY ROAD 261                                        FLORENCE          AL35633    A000003962 000000000 000000000 000000000 000000000 00000000000000000000000000002000327900000000000000000000000000000000000000226693200007815600000000000700000000000000000000000000000000000000000022669320002961920        0000R154552000 0  0000000 0002266932              M                                                                                              00      
7120204541680435006    116705       BUTLER         JOEL                                         1954081519940503                        B 1545 CO RD 344                                              FLORENCE          AL35634    A000002591 000000000 000000000 000000000 000000000 00000000000000000000000000000000000000000000000000000000000000000000000000203562300006475100000000000500000000000000000000000000000000000000000020356230002785120        0000R148468000 0  0000000 0002035623              M           RICKSP@AWBCINC.COM                                                                 00      
7120204542280393806    116706       HERRING        JUDY                                         1961060620080114                        B 40 UNDERWOOD SCHOOL RD.                                     FLORENCE          AL35633    A000001345 000000000 000000000 000000000 000000000 00000000000000000000000000000000000000000000000000000000000000000000000000192677500006344400000000000350000000000000000000000000000000000000000019267750002597920        0000R150228000 0  0000000 0001926775              F           JGH060661@YAHOO.COM                                                                00      
7120204541749833106    152633       ZEIGLER        COLTON                                       1998081720200629                        B 221 SOUTHLAND DR.                                           FLORENCE          AL35633     000000000 000000000 000000000 000000000 000000000 00000000000000000000000000000000000000000000000000000000000000000000000000260285400012397200000000000000000000000000000000000000000000000000000026028540003336320        0000R154777000 0  0000000 0002602854              M           NDCFAN7@GMAIL.COM                                                                  00      
7120204542039667730    153463       SMITH          ADRIAN                                       1992060320201019        20220706        B 1843 CO RD.5                                                FLORENCE          AL35633     000000000 000000000 000000000 000000000 000000000 00000000000000000000000000000000000000000000000000000000000000000000000000121323000003415400000000000000000000000000000000000000000000000000000012132300002891200        0000R103317000 0  0000000 0001213230              F           A.S.SMITH0692@GMAIL.COM                                                            00      
7120204541431056606    83519        MORRIS         MELISSA                                      1966031720001031                        B 5310 WILSON ROAD                                            IRON CITY         TN38463    A000001999Q000000500 000000000 000000000 000000000 00000000000000000000000000002000258700000000000000000000000000000000000000196133100010697500000000000400000000000000000000000000000000000000000019613310002548000        0010R150628000 0  0000000 0001961331              F                                                                                              00      
7120204541527573706    112213       POWELL         SONDRA                                       1969012320100809                        B 9 WOLF CREEK ROAD                                           IRON CITY         TN38463    A000003487 000000000 000000000 000000000 000000000 00000000000000000000000000000000000000000000000000000000000000000000000000226038700012645500000000000500000000000000000000000000000000000000000022603870002964000        0000R148471000 0  0000000 0002260387              F           NATHANBALENTINE@YAHOO.COM                                                          00      
7120204542219986230    136271       BELEW          REGINA                                       1969071220160314        20210823        B 5390 COUNTY ROAD 41                                         FLORENCE          AL35633     000000000 000000000 000000000 000000000 000000000 00000000000000000000000000000000000000000000000000000000000000000000000000000000000000000000000000000000000000000000000000000000000000000000000000000000005192200        0000R000000000 0  0000000 0000000000              F                                                                                              00      
